###############################################################################
#                                                                             #
# IAR ELF Linker V6.60.2.5449/W32 for ARM               10/Apr/2017  14:40:18 #
# Copyright 2007-2013 IAR Systems AB.                                         #
#                                                                             #
#    Output file  =  C:\Users\Mani\Documents\NTU\sem-2\Embedded_OS\OS_bckup\p #
#                    hase2\RM\sched\ce4053\Micrium\Software\EvalBoards\TI\LM3 #
#                    S9B92-EVALBOT\IAR\uCOS-III-CE4053_PG\Flash\Exe\uCOS-III- #
#                    Ex4.out                                                  #
#    Map file     =  C:\Users\Mani\Documents\NTU\sem-2\Embedded_OS\OS_bckup\p #
#                    hase2\RM\sched\ce4053\Micrium\Software\EvalBoards\TI\LM3 #
#                    S9B92-EVALBOT\IAR\uCOS-III-CE4053_PG\Flash\List\uCOS-III #
#                    -Ex4.map                                                 #
#    Command line =  C:\Users\Mani\Documents\NTU\sem-2\Embedded_OS\OS_bckup\p #
#                    hase2\RM\sched\ce4053\Micrium\Software\EvalBoards\TI\LM3 #
#                    S9B92-EVALBOT\IAR\uCOS-III-CE4053_PG\Flash\Obj\adc.o     #
#                    C:\Users\Mani\Documents\NTU\sem-2\Embedded_OS\OS_bckup\p #
#                    hase2\RM\sched\ce4053\Micrium\Software\EvalBoards\TI\LM3 #
#                    S9B92-EVALBOT\IAR\uCOS-III-CE4053_PG\Flash\Obj\app.o     #
#                    C:\Users\Mani\Documents\NTU\sem-2\Embedded_OS\OS_bckup\p #
#                    hase2\RM\sched\ce4053\Micrium\Software\EvalBoards\TI\LM3 #
#                    S9B92-EVALBOT\IAR\uCOS-III-CE4053_PG\Flash\Obj\app_vect. #
#                    o C:\Users\Mani\Documents\NTU\sem-2\Embedded_OS\OS_bckup #
#                    \phase2\RM\sched\ce4053\Micrium\Software\EvalBoards\TI\L #
#                    M3S9B92-EVALBOT\IAR\uCOS-III-CE4053_PG\Flash\Obj\avl.o   #
#                    C:\Users\Mani\Documents\NTU\sem-2\Embedded_OS\OS_bckup\p #
#                    hase2\RM\sched\ce4053\Micrium\Software\EvalBoards\TI\LM3 #
#                    S9B92-EVALBOT\IAR\uCOS-III-CE4053_PG\Flash\Obj\bsp.o     #
#                    C:\Users\Mani\Documents\NTU\sem-2\Embedded_OS\OS_bckup\p #
#                    hase2\RM\sched\ce4053\Micrium\Software\EvalBoards\TI\LM3 #
#                    S9B92-EVALBOT\IAR\uCOS-III-CE4053_PG\Flash\Obj\bsp_dac.o #
#                     C:\Users\Mani\Documents\NTU\sem-2\Embedded_OS\OS_bckup\ #
#                    phase2\RM\sched\ce4053\Micrium\Software\EvalBoards\TI\LM #
#                    3S9B92-EVALBOT\IAR\uCOS-III-CE4053_PG\Flash\Obj\bsp_disp #
#                    lay.o C:\Users\Mani\Documents\NTU\sem-2\Embedded_OS\OS_b #
#                    ckup\phase2\RM\sched\ce4053\Micrium\Software\EvalBoards\ #
#                    TI\LM3S9B92-EVALBOT\IAR\uCOS-III-CE4053_PG\Flash\Obj\bsp #
#                    _int.o C:\Users\Mani\Documents\NTU\sem-2\Embedded_OS\OS_ #
#                    bckup\phase2\RM\sched\ce4053\Micrium\Software\EvalBoards #
#                    \TI\LM3S9B92-EVALBOT\IAR\uCOS-III-CE4053_PG\Flash\Obj\bs #
#                    p_io.o C:\Users\Mani\Documents\NTU\sem-2\Embedded_OS\OS_ #
#                    bckup\phase2\RM\sched\ce4053\Micrium\Software\EvalBoards #
#                    \TI\LM3S9B92-EVALBOT\IAR\uCOS-III-CE4053_PG\Flash\Obj\bs #
#                    p_motor.o C:\Users\Mani\Documents\NTU\sem-2\Embedded_OS\ #
#                    OS_bckup\phase2\RM\sched\ce4053\Micrium\Software\EvalBoa #
#                    rds\TI\LM3S9B92-EVALBOT\IAR\uCOS-III-CE4053_PG\Flash\Obj #
#                    \bsp_sensors.o C:\Users\Mani\Documents\NTU\sem-2\Embedde #
#                    d_OS\OS_bckup\phase2\RM\sched\ce4053\Micrium\Software\Ev #
#                    alBoards\TI\LM3S9B92-EVALBOT\IAR\uCOS-III-CE4053_PG\Flas #
#                    h\Obj\can.o C:\Users\Mani\Documents\NTU\sem-2\Embedded_O #
#                    S\OS_bckup\phase2\RM\sched\ce4053\Micrium\Software\EvalB #
#                    oards\TI\LM3S9B92-EVALBOT\IAR\uCOS-III-CE4053_PG\Flash\O #
#                    bj\comp.o C:\Users\Mani\Documents\NTU\sem-2\Embedded_OS\ #
#                    OS_bckup\phase2\RM\sched\ce4053\Micrium\Software\EvalBoa #
#                    rds\TI\LM3S9B92-EVALBOT\IAR\uCOS-III-CE4053_PG\Flash\Obj #
#                    \cpu_.o C:\Users\Mani\Documents\NTU\sem-2\Embedded_OS\OS #
#                    _bckup\phase2\RM\sched\ce4053\Micrium\Software\EvalBoard #
#                    s\TI\LM3S9B92-EVALBOT\IAR\uCOS-III-CE4053_PG\Flash\Obj\c #
#                    pu_a.o C:\Users\Mani\Documents\NTU\sem-2\Embedded_OS\OS_ #
#                    bckup\phase2\RM\sched\ce4053\Micrium\Software\EvalBoards #
#                    \TI\LM3S9B92-EVALBOT\IAR\uCOS-III-CE4053_PG\Flash\Obj\cp #
#                    u_bsp.o C:\Users\Mani\Documents\NTU\sem-2\Embedded_OS\OS #
#                    _bckup\phase2\RM\sched\ce4053\Micrium\Software\EvalBoard #
#                    s\TI\LM3S9B92-EVALBOT\IAR\uCOS-III-CE4053_PG\Flash\Obj\c #
#                    pu_c.o C:\Users\Mani\Documents\NTU\sem-2\Embedded_OS\OS_ #
#                    bckup\phase2\RM\sched\ce4053\Micrium\Software\EvalBoards #
#                    \TI\LM3S9B92-EVALBOT\IAR\uCOS-III-CE4053_PG\Flash\Obj\cp #
#                    u_core.o C:\Users\Mani\Documents\NTU\sem-2\Embedded_OS\O #
#                    S_bckup\phase2\RM\sched\ce4053\Micrium\Software\EvalBoar #
#                    ds\TI\LM3S9B92-EVALBOT\IAR\uCOS-III-CE4053_PG\Flash\Obj\ #
#                    epi.o C:\Users\Mani\Documents\NTU\sem-2\Embedded_OS\OS_b #
#                    ckup\phase2\RM\sched\ce4053\Micrium\Software\EvalBoards\ #
#                    TI\LM3S9B92-EVALBOT\IAR\uCOS-III-CE4053_PG\Flash\Obj\eth #
#                    ernet.o C:\Users\Mani\Documents\NTU\sem-2\Embedded_OS\OS #
#                    _bckup\phase2\RM\sched\ce4053\Micrium\Software\EvalBoard #
#                    s\TI\LM3S9B92-EVALBOT\IAR\uCOS-III-CE4053_PG\Flash\Obj\f #
#                    atfs.o C:\Users\Mani\Documents\NTU\sem-2\Embedded_OS\OS_ #
#                    bckup\phase2\RM\sched\ce4053\Micrium\Software\EvalBoards #
#                    \TI\LM3S9B92-EVALBOT\IAR\uCOS-III-CE4053_PG\Flash\Obj\fl #
#                    ash.o C:\Users\Mani\Documents\NTU\sem-2\Embedded_OS\OS_b #
#                    ckup\phase2\RM\sched\ce4053\Micrium\Software\EvalBoards\ #
#                    TI\LM3S9B92-EVALBOT\IAR\uCOS-III-CE4053_PG\Flash\Obj\gpi #
#                    o.o C:\Users\Mani\Documents\NTU\sem-2\Embedded_OS\OS_bck #
#                    up\phase2\RM\sched\ce4053\Micrium\Software\EvalBoards\TI #
#                    \LM3S9B92-EVALBOT\IAR\uCOS-III-CE4053_PG\Flash\Obj\hiber #
#                    nate.o C:\Users\Mani\Documents\NTU\sem-2\Embedded_OS\OS_ #
#                    bckup\phase2\RM\sched\ce4053\Micrium\Software\EvalBoards #
#                    \TI\LM3S9B92-EVALBOT\IAR\uCOS-III-CE4053_PG\Flash\Obj\i2 #
#                    c.o C:\Users\Mani\Documents\NTU\sem-2\Embedded_OS\OS_bck #
#                    up\phase2\RM\sched\ce4053\Micrium\Software\EvalBoards\TI #
#                    \LM3S9B92-EVALBOT\IAR\uCOS-III-CE4053_PG\Flash\Obj\i2s.o #
#                     C:\Users\Mani\Documents\NTU\sem-2\Embedded_OS\OS_bckup\ #
#                    phase2\RM\sched\ce4053\Micrium\Software\EvalBoards\TI\LM #
#                    3S9B92-EVALBOT\IAR\uCOS-III-CE4053_PG\Flash\Obj\interrup #
#                    t.o C:\Users\Mani\Documents\NTU\sem-2\Embedded_OS\OS_bck #
#                    up\phase2\RM\sched\ce4053\Micrium\Software\EvalBoards\TI #
#                    \LM3S9B92-EVALBOT\IAR\uCOS-III-CE4053_PG\Flash\Obj\lib_a #
#                    scii.o C:\Users\Mani\Documents\NTU\sem-2\Embedded_OS\OS_ #
#                    bckup\phase2\RM\sched\ce4053\Micrium\Software\EvalBoards #
#                    \TI\LM3S9B92-EVALBOT\IAR\uCOS-III-CE4053_PG\Flash\Obj\li #
#                    b_math.o C:\Users\Mani\Documents\NTU\sem-2\Embedded_OS\O #
#                    S_bckup\phase2\RM\sched\ce4053\Micrium\Software\EvalBoar #
#                    ds\TI\LM3S9B92-EVALBOT\IAR\uCOS-III-CE4053_PG\Flash\Obj\ #
#                    lib_mem.o C:\Users\Mani\Documents\NTU\sem-2\Embedded_OS\ #
#                    OS_bckup\phase2\RM\sched\ce4053\Micrium\Software\EvalBoa #
#                    rds\TI\LM3S9B92-EVALBOT\IAR\uCOS-III-CE4053_PG\Flash\Obj #
#                    \lib_str.o C:\Users\Mani\Documents\NTU\sem-2\Embedded_OS #
#                    \OS_bckup\phase2\RM\sched\ce4053\Micrium\Software\EvalBo #
#                    ards\TI\LM3S9B92-EVALBOT\IAR\uCOS-III-CE4053_PG\Flash\Ob #
#                    j\microsd.o C:\Users\Mani\Documents\NTU\sem-2\Embedded_O #
#                    S\OS_bckup\phase2\RM\sched\ce4053\Micrium\Software\EvalB #
#                    oards\TI\LM3S9B92-EVALBOT\IAR\uCOS-III-CE4053_PG\Flash\O #
#                    bj\mpu.o C:\Users\Mani\Documents\NTU\sem-2\Embedded_OS\O #
#                    S_bckup\phase2\RM\sched\ce4053\Micrium\Software\EvalBoar #
#                    ds\TI\LM3S9B92-EVALBOT\IAR\uCOS-III-CE4053_PG\Flash\Obj\ #
#                    os_app_hooks.o C:\Users\Mani\Documents\NTU\sem-2\Embedde #
#                    d_OS\OS_bckup\phase2\RM\sched\ce4053\Micrium\Software\Ev #
#                    alBoards\TI\LM3S9B92-EVALBOT\IAR\uCOS-III-CE4053_PG\Flas #
#                    h\Obj\os_cfg_app.o C:\Users\Mani\Documents\NTU\sem-2\Emb #
#                    edded_OS\OS_bckup\phase2\RM\sched\ce4053\Micrium\Softwar #
#                    e\EvalBoards\TI\LM3S9B92-EVALBOT\IAR\uCOS-III-CE4053_PG\ #
#                    Flash\Obj\os_core.o C:\Users\Mani\Documents\NTU\sem-2\Em #
#                    bedded_OS\OS_bckup\phase2\RM\sched\ce4053\Micrium\Softwa #
#                    re\EvalBoards\TI\LM3S9B92-EVALBOT\IAR\uCOS-III-CE4053_PG #
#                    \Flash\Obj\os_cpu_a.o C:\Users\Mani\Documents\NTU\sem-2\ #
#                    Embedded_OS\OS_bckup\phase2\RM\sched\ce4053\Micrium\Soft #
#                    ware\EvalBoards\TI\LM3S9B92-EVALBOT\IAR\uCOS-III-CE4053_ #
#                    PG\Flash\Obj\os_cpu_c.o C:\Users\Mani\Documents\NTU\sem- #
#                    2\Embedded_OS\OS_bckup\phase2\RM\sched\ce4053\Micrium\So #
#                    ftware\EvalBoards\TI\LM3S9B92-EVALBOT\IAR\uCOS-III-CE405 #
#                    3_PG\Flash\Obj\os_dbg.o C:\Users\Mani\Documents\NTU\sem- #
#                    2\Embedded_OS\OS_bckup\phase2\RM\sched\ce4053\Micrium\So #
#                    ftware\EvalBoards\TI\LM3S9B92-EVALBOT\IAR\uCOS-III-CE405 #
#                    3_PG\Flash\Obj\os_flag.o C:\Users\Mani\Documents\NTU\sem #
#                    -2\Embedded_OS\OS_bckup\phase2\RM\sched\ce4053\Micrium\S #
#                    oftware\EvalBoards\TI\LM3S9B92-EVALBOT\IAR\uCOS-III-CE40 #
#                    53_PG\Flash\Obj\os_int.o C:\Users\Mani\Documents\NTU\sem #
#                    -2\Embedded_OS\OS_bckup\phase2\RM\sched\ce4053\Micrium\S #
#                    oftware\EvalBoards\TI\LM3S9B92-EVALBOT\IAR\uCOS-III-CE40 #
#                    53_PG\Flash\Obj\os_mem.o C:\Users\Mani\Documents\NTU\sem #
#                    -2\Embedded_OS\OS_bckup\phase2\RM\sched\ce4053\Micrium\S #
#                    oftware\EvalBoards\TI\LM3S9B92-EVALBOT\IAR\uCOS-III-CE40 #
#                    53_PG\Flash\Obj\os_msg.o C:\Users\Mani\Documents\NTU\sem #
#                    -2\Embedded_OS\OS_bckup\phase2\RM\sched\ce4053\Micrium\S #
#                    oftware\EvalBoards\TI\LM3S9B92-EVALBOT\IAR\uCOS-III-CE40 #
#                    53_PG\Flash\Obj\os_mutex.o C:\Users\Mani\Documents\NTU\s #
#                    em-2\Embedded_OS\OS_bckup\phase2\RM\sched\ce4053\Micrium #
#                    \Software\EvalBoards\TI\LM3S9B92-EVALBOT\IAR\uCOS-III-CE #
#                    4053_PG\Flash\Obj\os_pend_multi.o                        #
#                    C:\Users\Mani\Documents\NTU\sem-2\Embedded_OS\OS_bckup\p #
#                    hase2\RM\sched\ce4053\Micrium\Software\EvalBoards\TI\LM3 #
#                    S9B92-EVALBOT\IAR\uCOS-III-CE4053_PG\Flash\Obj\os_prio.o #
#                     C:\Users\Mani\Documents\NTU\sem-2\Embedded_OS\OS_bckup\ #
#                    phase2\RM\sched\ce4053\Micrium\Software\EvalBoards\TI\LM #
#                    3S9B92-EVALBOT\IAR\uCOS-III-CE4053_PG\Flash\Obj\os_q.o   #
#                    C:\Users\Mani\Documents\NTU\sem-2\Embedded_OS\OS_bckup\p #
#                    hase2\RM\sched\ce4053\Micrium\Software\EvalBoards\TI\LM3 #
#                    S9B92-EVALBOT\IAR\uCOS-III-CE4053_PG\Flash\Obj\os_sem.o  #
#                    C:\Users\Mani\Documents\NTU\sem-2\Embedded_OS\OS_bckup\p #
#                    hase2\RM\sched\ce4053\Micrium\Software\EvalBoards\TI\LM3 #
#                    S9B92-EVALBOT\IAR\uCOS-III-CE4053_PG\Flash\Obj\os_stat.o #
#                     C:\Users\Mani\Documents\NTU\sem-2\Embedded_OS\OS_bckup\ #
#                    phase2\RM\sched\ce4053\Micrium\Software\EvalBoards\TI\LM #
#                    3S9B92-EVALBOT\IAR\uCOS-III-CE4053_PG\Flash\Obj\os_task. #
#                    o C:\Users\Mani\Documents\NTU\sem-2\Embedded_OS\OS_bckup #
#                    \phase2\RM\sched\ce4053\Micrium\Software\EvalBoards\TI\L #
#                    M3S9B92-EVALBOT\IAR\uCOS-III-CE4053_PG\Flash\Obj\os_tick #
#                    .o C:\Users\Mani\Documents\NTU\sem-2\Embedded_OS\OS_bcku #
#                    p\phase2\RM\sched\ce4053\Micrium\Software\EvalBoards\TI\ #
#                    LM3S9B92-EVALBOT\IAR\uCOS-III-CE4053_PG\Flash\Obj\os_tim #
#                    e.o C:\Users\Mani\Documents\NTU\sem-2\Embedded_OS\OS_bck #
#                    up\phase2\RM\sched\ce4053\Micrium\Software\EvalBoards\TI #
#                    \LM3S9B92-EVALBOT\IAR\uCOS-III-CE4053_PG\Flash\Obj\os_tm #
#                    r.o C:\Users\Mani\Documents\NTU\sem-2\Embedded_OS\OS_bck #
#                    up\phase2\RM\sched\ce4053\Micrium\Software\EvalBoards\TI #
#                    \LM3S9B92-EVALBOT\IAR\uCOS-III-CE4053_PG\Flash\Obj\os_va #
#                    r.o C:\Users\Mani\Documents\NTU\sem-2\Embedded_OS\OS_bck #
#                    up\phase2\RM\sched\ce4053\Micrium\Software\EvalBoards\TI #
#                    \LM3S9B92-EVALBOT\IAR\uCOS-III-CE4053_PG\Flash\Obj\pwm.o #
#                     C:\Users\Mani\Documents\NTU\sem-2\Embedded_OS\OS_bckup\ #
#                    phase2\RM\sched\ce4053\Micrium\Software\EvalBoards\TI\LM #
#                    3S9B92-EVALBOT\IAR\uCOS-III-CE4053_PG\Flash\Obj\qei.o    #
#                    C:\Users\Mani\Documents\NTU\sem-2\Embedded_OS\OS_bckup\p #
#                    hase2\RM\sched\ce4053\Micrium\Software\EvalBoards\TI\LM3 #
#                    S9B92-EVALBOT\IAR\uCOS-III-CE4053_PG\Flash\Obj\splay.o   #
#                    C:\Users\Mani\Documents\NTU\sem-2\Embedded_OS\OS_bckup\p #
#                    hase2\RM\sched\ce4053\Micrium\Software\EvalBoards\TI\LM3 #
#                    S9B92-EVALBOT\IAR\uCOS-III-CE4053_PG\Flash\Obj\splaytree #
#                    .o C:\Users\Mani\Documents\NTU\sem-2\Embedded_OS\OS_bcku #
#                    p\phase2\RM\sched\ce4053\Micrium\Software\EvalBoards\TI\ #
#                    LM3S9B92-EVALBOT\IAR\uCOS-III-CE4053_PG\Flash\Obj\ssi.o  #
#                    C:\Users\Mani\Documents\NTU\sem-2\Embedded_OS\OS_bckup\p #
#                    hase2\RM\sched\ce4053\Micrium\Software\EvalBoards\TI\LM3 #
#                    S9B92-EVALBOT\IAR\uCOS-III-CE4053_PG\Flash\Obj\sysctl.o  #
#                    C:\Users\Mani\Documents\NTU\sem-2\Embedded_OS\OS_bckup\p #
#                    hase2\RM\sched\ce4053\Micrium\Software\EvalBoards\TI\LM3 #
#                    S9B92-EVALBOT\IAR\uCOS-III-CE4053_PG\Flash\Obj\systick.o #
#                     C:\Users\Mani\Documents\NTU\sem-2\Embedded_OS\OS_bckup\ #
#                    phase2\RM\sched\ce4053\Micrium\Software\EvalBoards\TI\LM #
#                    3S9B92-EVALBOT\IAR\uCOS-III-CE4053_PG\Flash\Obj\timer.o  #
#                    C:\Users\Mani\Documents\NTU\sem-2\Embedded_OS\OS_bckup\p #
#                    hase2\RM\sched\ce4053\Micrium\Software\EvalBoards\TI\LM3 #
#                    S9B92-EVALBOT\IAR\uCOS-III-CE4053_PG\Flash\Obj\tree234.o #
#                     C:\Users\Mani\Documents\NTU\sem-2\Embedded_OS\OS_bckup\ #
#                    phase2\RM\sched\ce4053\Micrium\Software\EvalBoards\TI\LM #
#                    3S9B92-EVALBOT\IAR\uCOS-III-CE4053_PG\Flash\Obj\uart.o   #
#                    C:\Users\Mani\Documents\NTU\sem-2\Embedded_OS\OS_bckup\p #
#                    hase2\RM\sched\ce4053\Micrium\Software\EvalBoards\TI\LM3 #
#                    S9B92-EVALBOT\IAR\uCOS-III-CE4053_PG\Flash\Obj\udma.o    #
#                    C:\Users\Mani\Documents\NTU\sem-2\Embedded_OS\OS_bckup\p #
#                    hase2\RM\sched\ce4053\Micrium\Software\EvalBoards\TI\LM3 #
#                    S9B92-EVALBOT\IAR\uCOS-III-CE4053_PG\Flash\Obj\usb.o     #
#                    C:\Users\Mani\Documents\NTU\sem-2\Embedded_OS\OS_bckup\p #
#                    hase2\RM\sched\ce4053\Micrium\Software\EvalBoards\TI\LM3 #
#                    S9B92-EVALBOT\IAR\uCOS-III-CE4053_PG\Flash\Obj\watchdog. #
#                    o --redirect _Printf=_PrintfFull --redirect              #
#                    _Scanf=_ScanfFull -o C:\Users\Mani\Documents\NTU\sem-2\E #
#                    mbedded_OS\OS_bckup\phase2\RM\sched\ce4053\Micrium\Softw #
#                    are\EvalBoards\TI\LM3S9B92-EVALBOT\IAR\uCOS-III-CE4053_P #
#                    G\Flash\Exe\uCOS-III-Ex4.out --map                       #
#                    C:\Users\Mani\Documents\NTU\sem-2\Embedded_OS\OS_bckup\p #
#                    hase2\RM\sched\ce4053\Micrium\Software\EvalBoards\TI\LM3 #
#                    S9B92-EVALBOT\IAR\uCOS-III-CE4053_PG\Flash\List\uCOS-III #
#                    -Ex4.map --config C:\Users\Mani\Documents\NTU\sem-2\Embe #
#                    dded_OS\OS_bckup\phase2\RM\sched\ce4053\Micrium\Software #
#                    \EvalBoards\TI\LM3S9B92-EVALBOT\IAR\uCOS-III-CE4053_PG\. #
#                    .\BSP\LM3S9B92_Flash.icf --semihosting --entry           #
#                    __iar_program_start --vfe                                #
#                                                                             #
#                                                                             #
###############################################################################

*******************************************************************************
*** RUNTIME MODEL ATTRIBUTES
***

CppFlavor                     = *
__Heap_Handler                = Basic
__SystemLibrary               = DLib
__dlib_dynamic_initialization = normal


*******************************************************************************
*** PLACEMENT SUMMARY
***

"A1":  place at start of [0x00000000-0x0003ffff] { ro section .intvec };
"P1":  place in [from 0x00000000 to 0x0003ffff] { ro };
"P7":  place in [from 0x20000000 to 0x20017fff] { rw, block HEAP, block CSTACK };

  Section             Kind        Address    Size  Object
  -------             ----        -------    ----  ------
"A1":                                       0x11c
  .intvec             const    0x00000000   0x11c  app_vect.o [1]
                             - 0x0000011c   0x11c

"P1":                                      0x7800
  .text               ro code  0x0000011c  0x116e  xprintffull.o [3]
  .text               ro code  0x0000128a    0x20  xmbtowc.o [3]
  .text               ro code  0x000012aa    0x22  zero_init3.o [5]
  .text               ro code  0x000012cc    0x16  strchr.o [5]
  .rodata             const    0x000012e2     0x2  os_cfg_app.o [1]
  .text               ro code  0x000012e4    0x36  strlen.o [5]
  .rodata             const    0x0000131a     0x2  os_cfg_app.o [1]
  .text               ro code  0x0000131c    0x58  memchr.o [5]
  .text               ro code  0x00001374     0xa  xmbcurmax.o [3]
  .rodata             const    0x0000137e     0x2  os_cfg_app.o [1]
  .text               ro code  0x00001380    0xb0  xxmemxmalloc.o [3]
  .text               ro code  0x00001430    0x1a  xwctomb.o [3]
  .rodata             const    0x0000144a     0x2  os_dbg.o [1]
  .text               ro code  0x0000144c    0x76  ABImemcpy_unaligned.o [5]
  .rodata             const    0x000014c2     0x2  os_dbg.o [1]
  .text               ro code  0x000014c4    0x80  xxmemxfree.o [3]
  .text               ro code  0x00001544    0xee  I64DivMod.o [5]
  .rodata             const    0x00001632     0x2  os_dbg.o [1]
  .text               ro code  0x00001634   0x1a2  DblMul.o [4]
  .text               ro code  0x000017d6    0x42  xdnorm.o [4]
  .text               ro code  0x00001818    0x2e  DblCmpLe.o [4]
  .rodata             const    0x00001846     0x2  os_dbg.o [1]
  .text               ro code  0x00001848    0x2e  DblCmpGe.o [4]
  .rodata             const    0x00001876     0x2  os_dbg.o [1]
  .text               ro code  0x00001878   0x10c  xdscale.o [4]
  .text               ro code  0x00001984    0x58  DblToI32.o [4]
  .text               ro code  0x000019dc    0x30  I32ToDbl.o [4]
  .text               ro code  0x00001a0c   0x180  DblSub.o [4]
  .text               ro code  0x00001b8c   0x246  DblDiv.o [4]
  .rodata             const    0x00001dd2     0x2  os_dbg.o [1]
  .text               ro code  0x00001dd4    0x6c  localeconv.o [3]
  .text               ro code  0x00001e40     0xe  div.o [3]
  .rodata             const    0x00001e4e     0x2  os_dbg.o [1]
  .text               ro code  0x00001e50    0x14  setlocale.o [3]
  .text               ro code  0x00001e64    0x60  xencoding_sb.o [3]
  .text               ro code  0x00001ec4    0x2c  xgetmemchunk.o [3]
  .text               ro code  0x00001ef0     0x2  I64DivZer.o [5]
  .rodata             const    0x00001ef2     0x2  os_dbg.o [1]
  .text               ro code  0x00001ef4    0xd4  DblAdd.o [4]
  .text               ro code  0x00001fc8     0x2  xtls.o [3]
  .rodata             const    0x00001fca     0x2  os_dbg.o [1]
  .text               ro code  0x00001fcc   0x904  os_core.o [1]
  .text               ro code  0x000028d0   0x160  os_cpu_c.o [1]
  .text               ro code  0x00002a30    0x88  os_prio.o [1]
  .text               ro code  0x00002ab8   0x868  os_task.o [1]
  .text               ro code  0x00003320   0x880  os_tick.o [1]
  .text               ro code  0x00003ba0   0x168  os_mem.o [1]
  .text               ro code  0x00003d08   0x13c  os_msg.o [1]
  .text               ro code  0x00003e44   0x278  os_mutex.o [1]
  .text               ro code  0x000040bc   0x248  os_q.o [1]
  .text               ro code  0x00004304   0x2e4  os_tmr.o [1]
  .text               ro code  0x000045e8   0x1e8  os_dbg.o [1]
  .text               ro code  0x000047d0    0xe0  os_cfg_app.o [1]
  CODE                ro code  0x000048b0    0x2a  cpu_a.o [1]
  .rodata             const    0x000048da     0x2  os_dbg.o [1]
  .text               ro code  0x000048dc   0x1a0  cpu_core.o [1]
  CODE                ro code  0x00004a7c    0x84  os_cpu_a.o [1]
  .text               ro code  0x00004b00    0x24  printf.o [3]
  .text               ro code  0x00004b24    0x28  cpu_bsp.o [1]
  .text               ro code  0x00004b4c   0x124  os_time.o [1]
  .text               ro code  0x00004c70   0x234  splay.o [1]
  .text               ro code  0x00004ea4   0x280  avl.o [1]
  .text               ro code  0x00005124   0x14c  splaytree.o [1]
  .text               ro code  0x00005270    0x66  lib_mem.o [1]
  .rodata             const    0x000052d6     0x2  os_dbg.o [1]
  .text               ro code  0x000052d8    0xa8  bsp.o [1]
  .text               ro code  0x00005380   0x490  sysctl.o [1]
  .text               ro code  0x00005810   0x256  bsp_int.o [1]
  .rodata             const    0x00005a66     0x2  os_dbg.o [1]
  .text               ro code  0x00005a68   0x264  bsp_display.o [1]
  .text               ro code  0x00005ccc    0xa0  bsp_io.o [1]
  .text               ro code  0x00005d6c   0x154  bsp_sensors.o [1]
  .text               ro code  0x00005ec0   0x1f8  bsp_motor.o [1]
  .text               ro code  0x000060b8   0x13c  cpu_c.o [1]
  .text               ro code  0x000061f4    0xac  i2c.o [1]
  .text               ro code  0x000062a0   0x2d0  gpio.o [1]
  .text               ro code  0x00006570    0x98  pwm.o [1]
  .text               ro code  0x00006608   0x658  app.o [1]
  .text               ro code  0x00006c60    0x40  ethernet.o [1]
  .text               ro code  0x00006ca0    0xe0  XShHandles.o [3]
  .text               ro code  0x00006d80    0xd6  xfspos.o [3]
  .rodata             const    0x00006e56     0x2  os_dbg.o [1]
  .text               ro code  0x00006e58    0xb0  fflush.o [3]
  .text               ro code  0x00006f08     0xc  xfgpos.o [3]
  .text               ro code  0x00006f14    0x4c  lseek.o [6]
  .text               ro code  0x00006f60     0xc  errno.o [3]
  .text               ro code  0x00006f6c     0x4  xsyslock_nop.o [3]
  .text               ro code  0x00006f70    0x10  write.o [6]
  .text               ro code  0x00006f80    0x1e  dwrite.o [6]
  .text               ro code  0x00006f9e    0x20  iarwstd.o [6]
  .text               ro code  0x00006fbe    0x22  iarwrite.o [6]
  .text               ro code  0x00006fe0    0x6c  iarttio.o [6]
  .text               ro code  0x0000704c     0x8  XShttio.o [3]
  .text               ro code  0x00007054    0xd4  packbits_init.o [5]
  .text               ro code  0x00007128     0x6  abort.o [3]
  .rodata             const    0x0000712e     0x2  os_dbg.o [1]
  .text               ro code  0x00007130    0x14  exit.o [6]
  .text               ro code  0x00007144    0xb6  xfwprep.o [3]
  .text               ro code  0x000071fa    0x22  fseek.o [3]
  .text               ro code  0x0000721c    0x7c  xfofind.o [3]
  .text               ro code  0x00007298    0x7a  fclose.o [3]
  .text               ro code  0x00007312    0x1a  close.o [6]
  .text               ro code  0x0000732c    0x16  remove.o [6]
  .rodata             const    0x00007342     0x2  os_dbg.o [1]
  .rodata             const    0x00007344    0x5c  sysctl.o [1]
  .text               ro code  0x000073a0    0x58  xcloseall.o [3]
  .text               ro code  0x000073f8    0x56  fputc.o [3]
  .rodata             const    0x0000744e     0x2  os_dbg.o [1]
  .rodata             const    0x00007450    0x50  bsp_display.o [1]
  .rodata             const    0x000074a0    0x48  gpio.o [1]
  .rodata             const    0x000074e8    0x38  os_dbg.o [1]
  .rodata             const    0x00007520    0x34  os_dbg.o [1]
  .rodata             const    0x00007554    0x30  os_dbg.o [1]
  .rodata             const    0x00007584    0x28  os_dbg.o [1]
  .rodata             const    0x000075ac    0x28  os_dbg.o [1]
  .text               ro code  0x000075d4    0x28  data_init.o [5]
  .iar.init_table     const    0x000075fc    0x2c  - Linker created -
  .rodata             const    0x00007628    0x20  app.o [1]
  .rodata             const    0x00007648    0x20  os_dbg.o [1]
  .text               ro code  0x00007668    0x1a  cmain.o [5]
  .text               ro code  0x00007682     0x4  low_level_init.o [3]
  .text               ro code  0x00007686     0x4  exit.o [3]
  .rodata             const    0x0000768a     0x2  os_dbg.o [1]
  .text               ro code  0x0000768c     0xe  cexit.o [5]
  .rodata             const    0x0000769a     0x2  os_dbg.o [1]
  .rodata             const    0x0000769c    0x18  os_core.o [1]
  .rodata             const    0x000076b4    0x18  os_tmr.o [1]
  .text               ro code  0x000076cc    0x16  xprout.o [3]
  .rodata             const    0x000076e2     0x2  os_dbg.o [1]
  .text               ro code  0x000076e4     0xc  putchar.o [3]
  .rodata             const    0x000076f0    0x14  app.o [1]
  .rodata             const    0x00007704    0x14  os_core.o [1]
  .rodata             const    0x00007718    0x14  os_tick.o [1]
  .rodata             const    0x0000772c    0x10  app.o [1]
  .rodata             const    0x0000773c    0x10  app.o [1]
  .rodata             const    0x0000774c    0x10  app.o [1]
  .rodata             const    0x0000775c    0x10  app.o [1]
  .rodata             const    0x0000776c    0x10  app.o [1]
  .rodata             const    0x0000777c    0x10  app.o [1]
  .rodata             const    0x0000778c     0xc  app.o [1]
  .rodata             const    0x00007798     0xc  os_core.o [1]
  .rodata             const    0x000077a4     0xc  sysctl.o [1]
  .rodata             const    0x000077b0     0xc  sysctl.o [1]
  .rodata             const    0x000077bc     0xc  sysctl.o [1]
  .text               ro code  0x000077c8     0xc  app_vect.o [1]
  .text               ro code  0x000077d4     0xc  cstartup_M.o [5]
  .rodata             const    0x000077e0     0x8  bsp_display.o [1]
  .rodata             const    0x000077e8     0x8  bsp_display.o [1]
  .rodata             const    0x000077f0     0x8  os_core.o [1]
  .rodata             const    0x000077f8     0x8  os_task.o [1]
  .rodata             const    0x00007800     0x4  os_cfg_app.o [1]
  .rodata             const    0x00007804     0x4  os_cfg_app.o [1]
  .rodata             const    0x00007808     0x4  os_cfg_app.o [1]
  .rodata             const    0x0000780c     0x4  os_cfg_app.o [1]
  .rodata             const    0x00007810     0x4  os_cfg_app.o [1]
  .rodata             const    0x00007814     0x4  os_cfg_app.o [1]
  .rodata             const    0x00007818     0x4  os_cfg_app.o [1]
  .rodata             const    0x0000781c     0x4  os_cfg_app.o [1]
  .rodata             const    0x00007820     0x4  os_cfg_app.o [1]
  .rodata             const    0x00007824     0x4  os_cfg_app.o [1]
  .rodata             const    0x00007828     0x4  os_cfg_app.o [1]
  .rodata             const    0x0000782c     0x4  os_cfg_app.o [1]
  .rodata             const    0x00007830     0x4  os_cfg_app.o [1]
  .rodata             const    0x00007834     0x4  os_cfg_app.o [1]
  .rodata             const    0x00007838     0x4  os_cfg_app.o [1]
  .rodata             const    0x0000783c     0x4  os_cfg_app.o [1]
  .rodata             const    0x00007840     0x4  os_cfg_app.o [1]
  .rodata             const    0x00007844     0x4  os_cfg_app.o [1]
  .rodata             const    0x00007848     0x4  os_cfg_app.o [1]
  .rodata             const    0x0000784c     0x4  os_cfg_app.o [1]
  .rodata             const    0x00007850     0x4  os_cfg_app.o [1]
  .rodata             const    0x00007854     0x4  os_cfg_app.o [1]
  .rodata             const    0x00007858     0x4  os_cfg_app.o [1]
  .rodata             const    0x0000785c     0x4  os_dbg.o [1]
  .rodata             const    0x00007860     0x4  os_dbg.o [1]
  .rodata             const    0x00007864     0x4  os_dbg.o [1]
  .rodata             const    0x00007868     0x2  os_dbg.o [1]
  .rodata             const    0x0000786a     0x1  os_cfg_app.o [1]
  .rodata             const    0x0000786b     0x1  os_cfg_app.o [1]
  .rodata             const    0x0000786c     0x1  os_dbg.o [1]
  .rodata             const    0x0000786d     0x1  os_dbg.o [1]
  .rodata             const    0x0000786e     0x1  os_dbg.o [1]
  .rodata             const    0x0000786f     0x1  os_dbg.o [1]
  .rodata             const    0x00007870     0x1  os_dbg.o [1]
  .rodata             const    0x00007871     0x1  os_dbg.o [1]
  .rodata             const    0x00007872     0x1  os_dbg.o [1]
  .rodata             const    0x00007873     0x1  os_dbg.o [1]
  .rodata             const    0x00007874     0x1  os_dbg.o [1]
  .rodata             const    0x00007875     0x1  os_dbg.o [1]
  .rodata             const    0x00007876     0x1  os_dbg.o [1]
  .rodata             const    0x00007877     0x1  os_dbg.o [1]
  .rodata             const    0x00007878     0x1  os_dbg.o [1]
  .rodata             const    0x00007879     0x1  os_dbg.o [1]
  .rodata             const    0x0000787a     0x1  os_dbg.o [1]
  .rodata             const    0x0000787b     0x1  os_dbg.o [1]
  .rodata             const    0x0000787c     0x1  os_dbg.o [1]
  .rodata             const    0x0000787d     0x1  os_dbg.o [1]
  .rodata             const    0x0000787e     0x1  os_dbg.o [1]
  .rodata             const    0x0000787f     0x1  os_dbg.o [1]
  .rodata             const    0x00007880     0x1  os_dbg.o [1]
  .rodata             const    0x00007881     0x1  os_dbg.o [1]
  .rodata             const    0x00007882     0x1  os_dbg.o [1]
  .rodata             const    0x00007883     0x1  os_dbg.o [1]
  .rodata             const    0x00007884     0x1  os_dbg.o [1]
  .rodata             const    0x00007885     0x1  os_dbg.o [1]
  .rodata             const    0x00007886     0x1  os_dbg.o [1]
  .rodata             const    0x00007887     0x1  os_dbg.o [1]
  .rodata             const    0x00007888     0x1  os_dbg.o [1]
  .rodata             const    0x00007889     0x1  os_dbg.o [1]
  .rodata             const    0x0000788a     0x1  os_dbg.o [1]
  .rodata             const    0x0000788b     0x1  os_dbg.o [1]
  .text               ro code  0x0000788c     0x0  cstart_closeall.o [5]
  .rodata             const    0x0000788c     0x0  zero_init3.o [5]
  .rodata             const    0x0000788c     0x0  packbits_init.o [5]
  Initializer bytes   ro data  0x0000788c    0x8e  <for P7 s0>
                             - 0x0000791a  0x77fe

"P7", part 1 of 3:                          0x1f0
  P7 s0                        0x20000000   0x1f0  <Init block>
    __DLIB_PERTHREAD  inited   0x20000000    0x88  localeconv.o [3]
    __DLIB_PERTHREAD  inited   0x20000088    0x74  setlocale.o [3]
    .data             inited   0x200000fc    0x40  xfiles.o [3]
    .data             inited   0x2000013c    0x40  xfiles.o [3]
    .data             inited   0x2000017c    0x40  xfiles.o [3]
    .data             inited   0x200001bc    0x20  xfiles.o [3]
    .data             inited   0x200001dc     0x8  XShttio.o [3]
    .data             inited   0x200001e4     0x4  app.o [1]
    .data             inited   0x200001e8     0x4  os_mutex.o [1]
    __DLIB_PERTHREAD  inited   0x200001ec     0x4  errno.o [3]
                             - 0x200001f0   0x1f0

"P7", part 2 of 3:                         0x3108
  .bss                zero     0x200001f0   0x640  os_cfg_app.o [1]
  .bss                zero     0x20000830   0x4b0  app.o [1]
  .bss                zero     0x20000ce0   0x4b0  app.o [1]
  .bss                zero     0x20001190   0x320  app.o [1]
  .bss                zero     0x200014b0   0x320  app.o [1]
  .bss                zero     0x200017d0   0x320  app.o [1]
  .bss                zero     0x20001af0   0x200  app.o [1]
  .bss                zero     0x20001cf0   0x200  app.o [1]
  .bss                zero     0x20001ef0   0x200  app.o [1]
  .bss                zero     0x200020f0   0x200  os_cfg_app.o [1]
  .bss                zero     0x200022f0   0x200  os_cfg_app.o [1]
  .bss                zero     0x200024f0   0x200  os_cfg_app.o [1]
  .bss                zero     0x200026f0   0x200  os_cfg_app.o [1]
  .bss                zero     0x200028f0   0x118  bsp_int.o [1]
  .bss                zero     0x20002a08    0xf0  os_var.o [1]
  .bss                zero     0x20002af8    0x9c  app.o [1]
  .bss                zero     0x20002b94    0x9c  app.o [1]
  .bss                zero     0x20002c30    0x9c  app.o [1]
  .bss                zero     0x20002ccc    0x9c  os_var.o [1]
  .bss                zero     0x20002d68    0x9c  os_var.o [1]
  .bss                zero     0x20002e04    0x9c  os_var.o [1]
  .bss                zero     0x20002ea0    0x80  XShHandles.o [3]
  .bss                zero     0x20002f20    0x68  os_cfg_app.o [1]
  .bss                zero     0x20002f88    0x68  os_cfg_app.o [1]
  .bss                zero     0x20002ff0    0x50  xfiles.o [3]
  .bss                zero     0x20003040    0x50  xfiles.o [3]
  .bss                zero     0x20003090    0x38  app.o [1]
  .bss                zero     0x200030c8    0x38  app.o [1]
  .bss                zero     0x20003100    0x38  app.o [1]
  .bss                zero     0x20003138    0x30  app.o [1]
  .bss                zero     0x20003168    0x20  app.o [1]
  .bss                zero     0x20003188    0x20  app.o [1]
  .bss                zero     0x200031a8    0x20  app.o [1]
  .bss                zero     0x200031c8    0x20  app.o [1]
  .bss                zero     0x200031e8    0x20  splaytree.o [1]
  .bss                zero     0x20003208    0x10  cpu_core.o [1]
  .bss                zero     0x20003218     0x8  os_var.o [1]
  .bss                zero     0x20003220     0x8  xxmemxmalloc.o [3]
  .bss                zero     0x20003228     0x4  app.o [1]
  .bss                zero     0x2000322c     0x4  app.o [1]
  .bss                zero     0x20003230     0x4  app.o [1]
  .bss                zero     0x20003234     0x4  bsp.o [1]
  .bss                zero     0x20003238     0x4  bsp_display.o [1]
  .bss                zero     0x2000323c     0x4  cpu_core.o [1]
  .bss                zero     0x20003240     0x4  cpu_core.o [1]
  .bss                zero     0x20003244     0x4  cpu_core.o [1]
  .bss                zero     0x20003248     0x4  cpu_core.o [1]
  .bss                zero     0x2000324c     0x4  cpu_core.o [1]
  .bss                zero     0x20003250     0x4  cpu_core.o [1]
  .bss                zero     0x20003254     0x4  os_cpu_c.o [1]
  .bss                zero     0x20003258     0x4  os_mutex.o [1]
  .bss                zero     0x2000325c     0x4  os_mutex.o [1]
  .bss                zero     0x20003260     0x4  os_mutex.o [1]
  .bss                zero     0x20003264     0x4  os_mutex.o [1]
  .bss                zero     0x20003268     0x4  os_mutex.o [1]
  .bss                zero     0x2000326c     0x4  os_mutex.o [1]
  .bss                zero     0x20003270     0x4  os_prio.o [1]
  .bss                zero     0x20003274     0x4  os_task.o [1]
  .bss                zero     0x20003278     0x4  os_task.o [1]
  .bss                zero     0x2000327c     0x4  os_tick.o [1]
  .bss                zero     0x20003280     0x4  os_tick.o [1]
  .bss                zero     0x20003284     0x4  os_tick.o [1]
  .bss                zero     0x20003288     0x4  os_var.o [1]
  .bss                zero     0x2000328c     0x4  os_var.o [1]
  .bss                zero     0x20003290     0x4  os_var.o [1]
  .bss                zero     0x20003294     0x4  os_var.o [1]
  .bss                zero     0x20003298     0x4  os_var.o [1]
  .bss                zero     0x2000329c     0x4  os_var.o [1]
  .bss                zero     0x200032a0     0x4  os_var.o [1]
  .bss                zero     0x200032a4     0x4  os_var.o [1]
  .bss                zero     0x200032a8     0x4  os_var.o [1]
  .bss                zero     0x200032ac     0x4  os_var.o [1]
  .bss                zero     0x200032b0     0x4  os_var.o [1]
  .bss                zero     0x200032b4     0x4  os_var.o [1]
  .bss                zero     0x200032b8     0x4  os_var.o [1]
  .bss                zero     0x200032bc     0x4  os_var.o [1]
  .bss                zero     0x200032c0     0x4  os_var.o [1]
  .bss                zero     0x200032c4     0x4  os_var.o [1]
  .bss                zero     0x200032c8     0x4  os_var.o [1]
  .bss                zero     0x200032cc     0x4  os_var.o [1]
  .bss                zero     0x200032d0     0x4  splay.o [1]
  .bss                zero     0x200032d4     0x4  xgetmemchunk.o [3]
  .bss                zero     0x200032d8     0x2  cpu_core.o [1]
  .bss                zero     0x200032da     0x2  cpu_core.o [1]
  .bss                zero     0x200032dc     0x2  os_tick.o [1]
  .bss                zero     0x200032de     0x2  os_var.o [1]
  .bss                zero     0x200032e0     0x2  os_var.o [1]
  .bss                zero     0x200032e2     0x2  os_var.o [1]
  .bss                zero     0x200032e4     0x2  os_var.o [1]
  .bss                zero     0x200032e6     0x2  splay.o [1]
  .bss                zero     0x200032e8     0x1  app.o [1]
  .bss                zero     0x200032e9     0x1  app.o [1]
  .bss                zero     0x200032ea     0x1  app.o [1]
  .bss                zero     0x200032eb     0x1  app.o [1]
  .bss                zero     0x200032ec     0x1  app.o [1]
  .bss                zero     0x200032ed     0x1  os_var.o [1]
  .bss                zero     0x200032ee     0x1  os_var.o [1]
  .bss                zero     0x200032ef     0x1  os_var.o [1]
  .bss                zero     0x200032f0     0x1  os_var.o [1]
  .bss                zero     0x200032f1     0x1  os_var.o [1]
                             - 0x200032f2  0x3102

"P7", part 3 of 3:                          0x400
  HEAP                         0x200032f8     0x0  <Block>
  CSTACK                       0x200032f8   0x400  <Block>
    CSTACK            uninit   0x200032f8   0x400  <Block tail>
                             - 0x200036f8   0x400


*******************************************************************************
*** INIT TABLE
***

          Address     Size
          -------     ----
Zero (__iar_zero_init3)
    1 destination range, total size 0x3102:
          0x200001f0  0x3102

Copy/packbits (__iar_packbits_init3)
    1 source range, total size 0x8e (28% of destination):
          0x0000788c    0x8e
    1 destination range, total size 0x1f0:
          0x20000000   0x1f0



*******************************************************************************
*** MODULE SUMMARY
***

    Module                 ro code  ro data  rw data
    ------                 -------  -------  -------
C:\Users\Mani\Documents\NTU\sem-2\Embedded_OS\OS_bckup\phase2\RM\sched\ce4053\Micrium\Software\EvalBoards\TI\LM3S9B92-EVALBOT\IAR\uCOS-III-CE4053_PG\Flash\Obj: [1]
    app.o                    1 624      161    7 169
    app_vect.o                  12      284
    avl.o                      640
    bsp.o                      168                 4
    bsp_display.o              612       96        4
    bsp_int.o                  598               280
    bsp_io.o                   160
    bsp_motor.o                504
    bsp_sensors.o              340
    cpu_a.o                     42
    cpu_bsp.o                   40
    cpu_c.o                    316
    cpu_core.o                 416                44
    ethernet.o                  64
    gpio.o                     720       72
    i2c.o                      172
    lib_mem.o                  102
    os_cfg_app.o               224      100    3 856
    os_core.o                2 308       64
    os_cpu_a.o                 132
    os_cpu_c.o                 352                 4
    os_dbg.o                   488      352
    os_mem.o                   360
    os_msg.o                   316
    os_mutex.o                 632        1       28
    os_prio.o                  136                 4
    os_q.o                     584
    os_task.o                2 152        8        8
    os_tick.o                2 176       20       14
    os_time.o                  292
    os_tmr.o                   740       24
    os_var.o                                     801
    pwm.o                      152
    splay.o                    564                 6
    splaytree.o                332                32
    sysctl.o                 1 168      128
    ------------------------------------------------
    Total:                  19 638    1 310   12 254

command line: [2]
    ------------------------------------------------
    Total:

dl7M_tlf.a: [3]
    XShHandles.o               224               128
    XShttio.o                    8        2        8
    abort.o                      6
    div.o                       14
    errno.o                     12        2        4
    exit.o                       4
    fclose.o                   122
    fflush.o                   176
    fputc.o                     86
    fseek.o                     34
    localeconv.o               108       38      136
    low_level_init.o             4
    printf.o                    36
    putchar.o                   12
    setlocale.o                 20       34      116
    xcloseall.o                 88
    xencoding_sb.o              96
    xfgpos.o                    12
    xfiles.o                             64      384
    xfofind.o                  124
    xfspos.o                   214
    xfwprep.o                  182
    xgetmemchunk.o              44                 4
    xmbcurmax.o                 10
    xmbtowc.o                   32
    xprintffull.o            4 462
    xprout.o                    22
    xsyslock_nop.o               4
    xtls.o                       2
    xwctomb.o                   26
    xxmemxfree.o               128
    xxmemxmalloc.o             176                 8
    ------------------------------------------------
    Total:                   6 488      140      788

m7M_tl.a: [4]
    DblAdd.o                   212
    DblCmpGe.o                  46
    DblCmpLe.o                  46
    DblDiv.o                   582
    DblMul.o                   418
    DblSub.o                   384
    DblToI32.o                  88
    I32ToDbl.o                  48
    xdnorm.o                    66
    xdscale.o                  268
    ------------------------------------------------
    Total:                   2 158

rt7M_tl.a: [5]
    ABImemcpy_unaligned.o      118
    I64DivMod.o                238
    I64DivZer.o                  2
    cexit.o                     14
    cmain.o                     26
    cstart_closeall.o
    cstartup_M.o                12
    data_init.o                 40
    memchr.o                    88
    packbits_init.o            212
    strchr.o                    22
    strlen.o                    54
    zero_init3.o                34
    ------------------------------------------------
    Total:                     860

shb_l.a: [6]
    close.o                     26
    dwrite.o                    30
    exit.o                      20
    iarttio.o                  108
    iarwrite.o                  34
    iarwstd.o                   32
    lseek.o                     76
    remove.o                    22
    write.o                     16
    ------------------------------------------------
    Total:                     364

    Linker created                       44    1 024
----------------------------------------------------
    Grand Total:            29 508    1 494   14 066


*******************************************************************************
*** ENTRY LIST
***

Entry                      Address   Size  Type      Object
-----                      -------   ----  ----      ------
?main                   0x00007669         Code  Gb  cmain.o [5]
AppRobotMotorDriveSensorEnable
                        0x000069eb   0x20  Code  Lc  app.o [1]
AppTaskOne              0x00006825  0x120  Code  Lc  app.o [1]
AppTaskOneStk           0x20001cf0  0x200  Data  Lc  app.o [1]
AppTaskOneTCB           0x20002b94   0x9c  Data  Lc  app.o [1]
AppTaskStart            0x000066e9  0x13a  Code  Lc  app.o [1]
AppTaskStartStk         0x20001af0  0x200  Data  Lc  app.o [1]
AppTaskStartTCB         0x20002af8   0x9c  Data  Lc  app.o [1]
AppTaskTwo              0x00006945   0xa6  Code  Lc  app.o [1]
AppTaskTwoStk           0x20001ef0  0x200  Data  Lc  app.o [1]
AppTaskTwoTCB           0x20002c30   0x9c  Data  Lc  app.o [1]
App_BusFault_ISR        0x000077cd    0x2  Code  Lc  app_vect.o [1]
App_Fault_ISR           0x000077cb    0x2  Code  Lc  app_vect.o [1]
App_MemFault_ISR        0x000077d1    0x2  Code  Lc  app_vect.o [1]
App_NMI_ISR             0x000077c9    0x2  Code  Lc  app_vect.o [1]
App_Spurious_ISR        0x000077d3    0x2  Code  Lc  app_vect.o [1]
App_UsageFault_ISR      0x000077cf    0x2  Code  Lc  app_vect.o [1]
BF                      0x000050df   0x2c  Code  Gb  avl.o [1]
BSP_BumpSensorsInit     0x00005d6d   0x18  Code  Gb  bsp_sensors.o [1]
BSP_CPUClkFreq          0x0000533d   0x12  Code  Gb  bsp.o [1]
BSP_CPU_ClkFreq_MHz     0x20003234    0x4  Data  Gb  bsp.o [1]
BSP_DisplayClear        0x00005b41   0x4c  Code  Gb  bsp_display.o [1]
BSP_DisplayInit         0x00005bc9   0xd8  Code  Gb  bsp_display.o [1]
BSP_DisplayOn           0x00005b8d   0x3c  Code  Gb  bsp_display.o [1]
BSP_DisplayWriteArray   0x00005ac3   0x3e  Code  Lc  bsp_display.o [1]
BSP_DisplayWriteByte    0x00005a91   0x32  Code  Lc  bsp_display.o [1]
BSP_DisplayWriteFinal   0x00005b01   0x40  Code  Lc  bsp_display.o [1]
BSP_DisplayWriteFirst   0x00005a69   0x28  Code  Lc  bsp_display.o [1]
BSP_Init                0x000052d9   0x64  Code  Gb  bsp.o [1]
BSP_IntDisAll           0x00005811    0x8  Code  Gb  bsp_int.o [1]
BSP_IntEn               0x00005819   0x10  Code  Gb  bsp_int.o [1]
BSP_IntHandler          0x00005a3f   0x20  Code  Lc  bsp_int.o [1]
BSP_IntHandlerADC0      0x000058c3    0xa  Code  Gb  bsp_int.o [1]
BSP_IntHandlerADC1      0x000058cd    0xa  Code  Gb  bsp_int.o [1]
BSP_IntHandlerADC1_0    0x000059f9    0xa  Code  Gb  bsp_int.o [1]
BSP_IntHandlerADC1_1    0x00005a03    0xa  Code  Gb  bsp_int.o [1]
BSP_IntHandlerADC1_2    0x00005a0d    0xa  Code  Gb  bsp_int.o [1]
BSP_IntHandlerADC1_3    0x00005a17    0xa  Code  Gb  bsp_int.o [1]
BSP_IntHandlerADC2      0x000058d7    0xa  Code  Gb  bsp_int.o [1]
BSP_IntHandlerADC3      0x000058e1    0xa  Code  Gb  bsp_int.o [1]
BSP_IntHandlerCAN0      0x000059b3    0xa  Code  Gb  bsp_int.o [1]
BSP_IntHandlerCAN1      0x000059bd    0xa  Code  Gb  bsp_int.o [1]
BSP_IntHandlerCOMP0     0x00005931    0xa  Code  Gb  bsp_int.o [1]
BSP_IntHandlerCOMP1     0x0000593b    0xa  Code  Gb  bsp_int.o [1]
BSP_IntHandlerCOMP2     0x00005945    0xa  Code  Gb  bsp_int.o [1]
BSP_IntHandlerDummy     0x00005a65    0x2  Code  Lc  bsp_int.o [1]
BSP_IntHandlerEPI       0x00005a2b    0xa  Code  Gb  bsp_int.o [1]
BSP_IntHandlerETH       0x000059c7    0xa  Code  Gb  bsp_int.o [1]
BSP_IntHandlerFLASH     0x00005959    0xa  Code  Gb  bsp_int.o [1]
BSP_IntHandlerGPIOA     0x00005869    0xa  Code  Gb  bsp_int.o [1]
BSP_IntHandlerGPIOB     0x00005873    0xa  Code  Gb  bsp_int.o [1]
BSP_IntHandlerGPIOC     0x0000587d    0xa  Code  Gb  bsp_int.o [1]
BSP_IntHandlerGPIOD     0x00005887    0xa  Code  Gb  bsp_int.o [1]
BSP_IntHandlerGPIOE     0x00005891    0xa  Code  Gb  bsp_int.o [1]
BSP_IntHandlerGPIOF     0x00005963    0xa  Code  Gb  bsp_int.o [1]
BSP_IntHandlerGPIOG     0x0000596d    0xa  Code  Gb  bsp_int.o [1]
BSP_IntHandlerGPIOH     0x00005977    0xa  Code  Gb  bsp_int.o [1]
BSP_IntHandlerGPIOJ     0x00005a35    0xa  Code  Gb  bsp_int.o [1]
BSP_IntHandlerHIBERNATE
                        0x000059d1    0xa  Code  Gb  bsp_int.o [1]
BSP_IntHandlerI2C0      0x000058b9    0xa  Code  Gb  bsp_int.o [1]
BSP_IntHandlerI2C1      0x000059a9    0xa  Code  Gb  bsp_int.o [1]
BSP_IntHandlerI2S0      0x00005a21    0xa  Code  Gb  bsp_int.o [1]
BSP_IntHandlerSSI0      0x000058af    0xa  Code  Gb  bsp_int.o [1]
BSP_IntHandlerSSI1      0x0000598b    0xa  Code  Gb  bsp_int.o [1]
BSP_IntHandlerSYSCTL    0x0000594f    0xa  Code  Gb  bsp_int.o [1]
BSP_IntHandlerTIMER0A   0x000058f5    0xa  Code  Gb  bsp_int.o [1]
BSP_IntHandlerTIMER0B   0x000058ff    0xa  Code  Gb  bsp_int.o [1]
BSP_IntHandlerTIMER1A   0x00005909    0xa  Code  Gb  bsp_int.o [1]
BSP_IntHandlerTIMER1B   0x00005913    0xa  Code  Gb  bsp_int.o [1]
BSP_IntHandlerTIMER2A   0x0000591d    0xa  Code  Gb  bsp_int.o [1]
BSP_IntHandlerTIMER2B   0x00005927    0xa  Code  Gb  bsp_int.o [1]
BSP_IntHandlerTIMER3A   0x00005995    0xa  Code  Gb  bsp_int.o [1]
BSP_IntHandlerTIMER3B   0x0000599f    0xa  Code  Gb  bsp_int.o [1]
BSP_IntHandlerUART0     0x0000589b    0xa  Code  Gb  bsp_int.o [1]
BSP_IntHandlerUART1     0x000058a5    0xa  Code  Gb  bsp_int.o [1]
BSP_IntHandlerUART2     0x00005981    0xa  Code  Gb  bsp_int.o [1]
BSP_IntHandlerUDMA_ERR  0x000059ef    0xa  Code  Gb  bsp_int.o [1]
BSP_IntHandlerUDMA_SW   0x000059e5    0xa  Code  Gb  bsp_int.o [1]
BSP_IntHandlerUSB       0x000059db    0xa  Code  Gb  bsp_int.o [1]
BSP_IntHandlerWATCHDOG  0x000058eb    0xa  Code  Gb  bsp_int.o [1]
BSP_IntInit             0x00005851   0x18  Code  Gb  bsp_int.o [1]
BSP_IntVectSet          0x00005829   0x28  Code  Gb  bsp_int.o [1]
BSP_IntVectTbl          0x200028f0  0x118  Data  Lc  bsp_int.o [1]
BSP_LED_Off             0x00005d2d   0x36  Code  Gb  bsp_io.o [1]
BSP_LED_On              0x00005cf7   0x36  Code  Gb  bsp_io.o [1]
BSP_LEDsInit            0x00005ce5   0x12  Code  Gb  bsp_io.o [1]
BSP_MotorDir            0x00005f9d   0x44  Code  Gb  bsp_motor.o [1]
BSP_MotorRun            0x00005fe1   0x1c  Code  Gb  bsp_motor.o [1]
BSP_MotorSpeed          0x0000602d   0x76  Code  Gb  bsp_motor.o [1]
BSP_MotorStop           0x00005ffd   0x30  Code  Gb  bsp_motor.o [1]
BSP_MotorsInit          0x00005ec1   0xdc  Code  Gb  bsp_motor.o [1]
BSP_PushButtonsInit     0x00005ccd   0x18  Code  Gb  bsp_io.o [1]
BSP_WheelSensorEnable   0x00005e27    0xe  Code  Gb  bsp_sensors.o [1]
BSP_WheelSensorIntEnable
                        0x00005e35   0x7e  Code  Gb  bsp_sensors.o [1]
BSP_WheelSensorsInit    0x00005d85   0xa2  Code  Gb  bsp_sensors.o [1]
CPU_CntLeadZeros        0x000048c7         Code  Gb  cpu_a.o [1]
CPU_Init                0x000048dd   0x10  Code  Gb  cpu_core.o [1]
CPU_IntDis              0x000048b1         Code  Gb  cpu_a.o [1]
CPU_IntDisMeasCtr       0x200032d8    0x2  Data  Gb  cpu_core.o [1]
CPU_IntDisMeasInit      0x000049cf   0x74  Code  Lc  cpu_core.o [1]
CPU_IntDisMeasMaxCalc   0x00004a43   0x14  Code  Lc  cpu_core.o [1]
CPU_IntDisMeasMaxCurGet
                        0x00004935   0x1c  Code  Gb  cpu_core.o [1]
CPU_IntDisMeasMaxCurReset
                        0x00004915   0x20  Code  Gb  cpu_core.o [1]
CPU_IntDisMeasMaxCur_cnts
                        0x2000324c    0x4  Data  Gb  cpu_core.o [1]
CPU_IntDisMeasMax_cnts  0x20003250    0x4  Data  Gb  cpu_core.o [1]
CPU_IntDisMeasOvrhd_cnts
                        0x20003248    0x4  Data  Gb  cpu_core.o [1]
CPU_IntDisMeasStart     0x00004951   0x28  Code  Gb  cpu_core.o [1]
CPU_IntDisMeasStart_cnts
                        0x20003240    0x4  Data  Gb  cpu_core.o [1]
CPU_IntDisMeasStop      0x00004979   0x40  Code  Gb  cpu_core.o [1]
CPU_IntDisMeasStop_cnts
                        0x20003244    0x4  Data  Gb  cpu_core.o [1]
CPU_IntDisNestCtr       0x200032da    0x2  Data  Gb  cpu_core.o [1]
CPU_IntEn               0x000048b5         Code  Gb  cpu_a.o [1]
CPU_IntSrcEn            0x000060b9  0x12c  Code  Gb  cpu_c.o [1]
CPU_Name                0x20003208   0x10  Data  Gb  cpu_core.o [1]
CPU_NameClr             0x000048ed   0x22  Code  Gb  cpu_core.o [1]
CPU_NameInit            0x000049b9    0x8  Code  Lc  cpu_core.o [1]
CPU_RevBits             0x000048cd         Code  Gb  cpu_a.o [1]
CPU_SR_Restore          0x000048c1         Code  Gb  cpu_a.o [1]
CPU_SR_Save             0x000048b9         Code  Gb  cpu_a.o [1]
CPU_TS_Init             0x000049c1    0xe  Code  Lc  cpu_core.o [1]
CPU_TS_TmrFreqSet       0x0000490f    0x6  Code  Gb  cpu_core.o [1]
CPU_TS_TmrFreq_Hz       0x2000323c    0x4  Data  Gb  cpu_core.o [1]
CPU_TS_TmrInit          0x00004b25   0x18  Code  Gb  cpu_bsp.o [1]
CPU_TS_TmrRd            0x00004b3d    0x6  Code  Gb  cpu_bsp.o [1]
CPU_WaitForExcept       0x000048d7         Code  Gb  cpu_a.o [1]
CPU_WaitForInt          0x000048d3         Code  Gb  cpu_a.o [1]
CSTACK$$Base            0x200032f8          --   Gb  - Linker created -
CSTACK$$Limit           0x200036f8          --   Gb  - Linker created -
Delete                  0x00004dd7   0xba  Code  Gb  splay.o [1]
Delete_heap             0x0000348b   0xc6  Code  Gb  os_tick.o [1]
DummyQ                  0x20003138   0x30  Data  Gb  app.o [1]
EthernetPHYRead         0x00006c81   0x20  Code  Gb  ethernet.o [1]
EthernetPHYWrite        0x00006c61   0x20  Code  Gb  ethernet.o [1]
GPIODirModeSet          0x000062a1   0x46  Code  Gb  gpio.o [1]
GPIOIntTypeSet          0x000062e7   0x5a  Code  Gb  gpio.o [1]
GPIOPadConfigSet        0x00006341  0x10e  Code  Gb  gpio.o [1]
GPIOPinConfigure        0x00006521   0x46  Code  Gb  gpio.o [1]
GPIOPinIntClear         0x00006487    0x8  Code  Gb  gpio.o [1]
GPIOPinIntDisable       0x00006461   0x12  Code  Gb  gpio.o [1]
GPIOPinIntEnable        0x0000644f   0x12  Code  Gb  gpio.o [1]
GPIOPinIntStatus        0x00006473   0x14  Code  Gb  gpio.o [1]
GPIOPinTypeGPIOInput    0x00006499   0x22  Code  Gb  gpio.o [1]
GPIOPinTypeGPIOOutput   0x000064bb   0x22  Code  Gb  gpio.o [1]
GPIOPinTypeI2C          0x000064dd   0x22  Code  Gb  gpio.o [1]
GPIOPinTypePWM          0x000064ff   0x22  Code  Gb  gpio.o [1]
GPIOPinWrite            0x0000648f    0xa  Code  Gb  gpio.o [1]
HEAP$$Base              0x200032f8          --   Gb  - Linker created -
HEAP$$Limit             0x200032f8          --   Gb  - Linker created -
Heap                    0x00003339   0x88  Code  Gb  os_tick.o [1]
HeapPartition           0x200031a8   0x20  Data  Gb  app.o [1]
HeapPartitionStorage    0x20000ce0  0x4b0  Data  Gb  app.o [1]
I2CMasterControl        0x00006279    0x4  Code  Gb  i2c.o [1]
I2CMasterDataPut        0x0000629b    0x6  Code  Gb  i2c.o [1]
I2CMasterEnable         0x00006233    0xa  Code  Gb  i2c.o [1]
I2CMasterErr            0x0000627d   0x1e  Code  Gb  i2c.o [1]
I2CMasterInitExpClk     0x000061f5   0x3e  Code  Gb  i2c.o [1]
I2CMasterIntStatus      0x0000623d   0x26  Code  Gb  i2c.o [1]
I2CMasterSlaveAddrSet   0x0000626d    0xc  Code  Gb  i2c.o [1]
InStream_Read           0x00007055   0x22  Code  Lc  packbits_init.o [5]
Insert                  0x00004d11   0xc6  Code  Gb  splay.o [1]
Insert_heap             0x000033c1   0xca  Code  Gb  os_tick.o [1]
IntWheelSensor          0x00006a0d   0xd2  Code  Gb  app.o [1]
LL                      0x000050a7    0x8  Code  Gb  avl.o [1]
LL_Rotate               0x00004c7d    0xc  Code  Gb  splay.o [1]
LL_Rotate_heap          0x0000332d    0xc  Code  Gb  os_tick.o [1]
LR                      0x000050af   0x18  Code  Gb  avl.o [1]
Left_tgt                0x200032e8    0x1  Data  Gb  app.o [1]
MemBlock                0x200031e8   0x20  Data  Gb  splaytree.o [1]
Mem_Clr                 0x00005271    0xc  Code  Gb  lib_mem.o [1]
Mem_Set                 0x0000527d   0x5a  Code  Gb  lib_mem.o [1]
Memory_alloc_init       0x20001190  0x320  Data  Gb  app.o [1]
MutexOne                0x20003090   0x38  Data  Gb  app.o [1]
MutexThree              0x20003100   0x38  Data  Gb  app.o [1]
MutexTwo                0x200030c8   0x38  Data  Gb  app.o [1]
OSCfg_DataSizeRAM       0x00007858    0x4  Data  Gb  os_cfg_app.o [1]
OSCfg_ISRStk            0x200022f0  0x200  Data  Gb  os_cfg_app.o [1]
OSCfg_ISRStkBasePtr     0x00007810    0x4  Data  Gb  os_cfg_app.o [1]
OSCfg_ISRStkSize        0x00007814    0x4  Data  Gb  os_cfg_app.o [1]
OSCfg_ISRStkSizeRAM     0x00007818    0x4  Data  Gb  os_cfg_app.o [1]
OSCfg_IdleTaskStk       0x200020f0  0x200  Data  Gb  os_cfg_app.o [1]
OSCfg_IdleTaskStkBasePtr
                        0x00007800    0x4  Data  Gb  os_cfg_app.o [1]
OSCfg_IdleTaskStkLimit  0x00007804    0x4  Data  Gb  os_cfg_app.o [1]
OSCfg_IdleTaskStkSize   0x00007808    0x4  Data  Gb  os_cfg_app.o [1]
OSCfg_IdleTaskStkSizeRAM
                        0x0000780c    0x4  Data  Gb  os_cfg_app.o [1]
OSCfg_Init              0x000047d1   0xe0  Code  Gb  os_cfg_app.o [1]
OSCfg_MsgPool           0x200001f0  0x640  Data  Gb  os_cfg_app.o [1]
OSCfg_MsgPoolBasePtr    0x00007820    0x4  Data  Gb  os_cfg_app.o [1]
OSCfg_MsgPoolSize       0x000012e2    0x2  Data  Gb  os_cfg_app.o [1]
OSCfg_MsgPoolSizeRAM    0x0000781c    0x4  Data  Gb  os_cfg_app.o [1]
OSCfg_StkSizeMin        0x00007824    0x4  Data  Gb  os_cfg_app.o [1]
OSCfg_TickRate_Hz       0x00007828    0x4  Data  Gb  os_cfg_app.o [1]
OSCfg_TickTaskPrio      0x0000786a    0x1  Data  Gb  os_cfg_app.o [1]
OSCfg_TickTaskStk       0x200024f0  0x200  Data  Gb  os_cfg_app.o [1]
OSCfg_TickTaskStkBasePtr
                        0x0000782c    0x4  Data  Gb  os_cfg_app.o [1]
OSCfg_TickTaskStkLimit  0x00007830    0x4  Data  Gb  os_cfg_app.o [1]
OSCfg_TickTaskStkSize   0x00007834    0x4  Data  Gb  os_cfg_app.o [1]
OSCfg_TickTaskStkSizeRAM
                        0x00007838    0x4  Data  Gb  os_cfg_app.o [1]
OSCfg_TickWheel         0x20002f20   0x68  Data  Gb  os_cfg_app.o [1]
OSCfg_TickWheelSize     0x0000131a    0x2  Data  Gb  os_cfg_app.o [1]
OSCfg_TickWheelSizeRAM  0x0000783c    0x4  Data  Gb  os_cfg_app.o [1]
OSCfg_TmrTaskPrio       0x0000786b    0x1  Data  Gb  os_cfg_app.o [1]
OSCfg_TmrTaskRate_Hz    0x00007840    0x4  Data  Gb  os_cfg_app.o [1]
OSCfg_TmrTaskStk        0x200026f0  0x200  Data  Gb  os_cfg_app.o [1]
OSCfg_TmrTaskStkBasePtr
                        0x00007844    0x4  Data  Gb  os_cfg_app.o [1]
OSCfg_TmrTaskStkLimit   0x00007848    0x4  Data  Gb  os_cfg_app.o [1]
OSCfg_TmrTaskStkSize    0x0000784c    0x4  Data  Gb  os_cfg_app.o [1]
OSCfg_TmrTaskStkSizeRAM
                        0x00007850    0x4  Data  Gb  os_cfg_app.o [1]
OSCfg_TmrWheel          0x20002f88   0x68  Data  Gb  os_cfg_app.o [1]
OSCfg_TmrWheelSize      0x0000137e    0x2  Data  Gb  os_cfg_app.o [1]
OSCfg_TmrWheelSizeRAM   0x00007854    0x4  Data  Gb  os_cfg_app.o [1]
OSDbg_AppHooksEn        0x0000786d    0x1  Data  Gb  os_dbg.o [1]
OSDbg_ArgChkEn          0x0000786c    0x1  Data  Gb  os_dbg.o [1]
OSDbg_CalledFromISRChkEn
                        0x0000786e    0x1  Data  Gb  os_dbg.o [1]
OSDbg_DataSize          0x00007864    0x4  Data  Gb  os_dbg.o [1]
OSDbg_DbgEn             0x0000144a    0x2  Data  Gb  os_dbg.o [1]
OSDbg_EndiannessTest    0x0000785c    0x4  Data  Gb  os_dbg.o [1]
OSDbg_FlagEn            0x0000786f    0x1  Data  Gb  os_dbg.o [1]
OSDbg_FlagGrp           0x00007584   0x28  Data  Gb  os_dbg.o [1]
OSDbg_ISRPostDeferredEn
                        0x00007870    0x1  Data  Gb  os_dbg.o [1]
OSDbg_Mem               0x00007648   0x20  Data  Gb  os_dbg.o [1]
OSDbg_MemEn             0x00007871    0x1  Data  Gb  os_dbg.o [1]
OSDbg_MemSize           0x000014c2    0x2  Data  Gb  os_dbg.o [1]
OSDbg_MsgEn             0x00007872    0x1  Data  Gb  os_dbg.o [1]
OSDbg_MsgPoolSize       0x00001846    0x2  Data  Gb  os_dbg.o [1]
OSDbg_MsgQSize          0x00001876    0x2  Data  Gb  os_dbg.o [1]
OSDbg_MsgSize           0x00001632    0x2  Data  Gb  os_dbg.o [1]
OSDbg_Mutex             0x000074e8   0x38  Data  Gb  os_dbg.o [1]
OSDbg_MutexDelEn        0x00007874    0x1  Data  Gb  os_dbg.o [1]
OSDbg_MutexEn           0x00007873    0x1  Data  Gb  os_dbg.o [1]
OSDbg_MutexPendAbortEn  0x00007875    0x1  Data  Gb  os_dbg.o [1]
OSDbg_MutexSize         0x00001dd2    0x2  Data  Gb  os_dbg.o [1]
OSDbg_ObjTypeChkEn      0x00007876    0x1  Data  Gb  os_dbg.o [1]
OSDbg_PendDataSize      0x00001e4e    0x2  Data  Gb  os_dbg.o [1]
OSDbg_PendListSize      0x00001ef2    0x2  Data  Gb  os_dbg.o [1]
OSDbg_PendMultiEn       0x00007877    0x1  Data  Gb  os_dbg.o [1]
OSDbg_PendObjSize       0x00001fca    0x2  Data  Gb  os_dbg.o [1]
OSDbg_PrioMax           0x000048da    0x2  Data  Gb  os_dbg.o [1]
OSDbg_PrioTblSize       0x000052d6    0x2  Data  Gb  os_dbg.o [1]
OSDbg_PtrSize           0x00005a66    0x2  Data  Gb  os_dbg.o [1]
OSDbg_Q                 0x00007554   0x30  Data  Gb  os_dbg.o [1]
OSDbg_QDelEn            0x00007879    0x1  Data  Gb  os_dbg.o [1]
OSDbg_QEn               0x00007878    0x1  Data  Gb  os_dbg.o [1]
OSDbg_QFlushEn          0x0000787a    0x1  Data  Gb  os_dbg.o [1]
OSDbg_QPendAbortEn      0x0000787b    0x1  Data  Gb  os_dbg.o [1]
OSDbg_QSize             0x00006e56    0x2  Data  Gb  os_dbg.o [1]
OSDbg_RdyList           0x0000712e    0x2  Data  Gb  os_dbg.o [1]
OSDbg_RdyListSize       0x00007860    0x4  Data  Gb  os_dbg.o [1]
OSDbg_SchedRoundRobinEn
                        0x0000787c    0x1  Data  Gb  os_dbg.o [1]
OSDbg_Sem               0x000075ac   0x28  Data  Gb  os_dbg.o [1]
OSDbg_SemEn             0x0000787d    0x1  Data  Gb  os_dbg.o [1]
OSDbg_StatTaskEn        0x0000787f    0x1  Data  Gb  os_dbg.o [1]
OSDbg_StatTaskStkChkEn  0x00007880    0x1  Data  Gb  os_dbg.o [1]
OSDbg_StkWidth          0x0000787e    0x1  Data  Gb  os_dbg.o [1]
OSDbg_TCBSize           0x0000744e    0x2  Data  Gb  os_dbg.o [1]
OSDbg_TaskChangePrioEn  0x00007881    0x1  Data  Gb  os_dbg.o [1]
OSDbg_TaskDelEn         0x00007882    0x1  Data  Gb  os_dbg.o [1]
OSDbg_TaskProfileEn     0x00007885    0x1  Data  Gb  os_dbg.o [1]
OSDbg_TaskQEn           0x00007883    0x1  Data  Gb  os_dbg.o [1]
OSDbg_TaskQPendAbortEn  0x00007884    0x1  Data  Gb  os_dbg.o [1]
OSDbg_TaskRegTblSize    0x00007342    0x2  Data  Gb  os_dbg.o [1]
OSDbg_TaskSemPendAbortEn
                        0x00007886    0x1  Data  Gb  os_dbg.o [1]
OSDbg_TaskSuspendEn     0x00007887    0x1  Data  Gb  os_dbg.o [1]
OSDbg_TickSpokeSize     0x0000768a    0x2  Data  Gb  os_dbg.o [1]
OSDbg_TimeDlyHMSMEn     0x00007888    0x1  Data  Gb  os_dbg.o [1]
OSDbg_TimeDlyResumeEn   0x00007889    0x1  Data  Gb  os_dbg.o [1]
OSDbg_Tmr               0x00007520   0x34  Data  Gb  os_dbg.o [1]
OSDbg_TmrDelEn          0x0000788b    0x1  Data  Gb  os_dbg.o [1]
OSDbg_TmrEn             0x0000788a    0x1  Data  Gb  os_dbg.o [1]
OSDbg_TmrSize           0x0000769a    0x2  Data  Gb  os_dbg.o [1]
OSDbg_TmrSpokeSize      0x000076e2    0x2  Data  Gb  os_dbg.o [1]
OSDbg_VersionNbr        0x00007868    0x2  Data  Gb  os_dbg.o [1]
OSIdleTaskCtr           0x20003288    0x4  Data  Gb  os_var.o [1]
OSIdleTaskHook          0x000028d1    0x2  Code  Gb  os_cpu_c.o [1]
OSIdleTaskTCB           0x20002ccc   0x9c  Data  Gb  os_var.o [1]
OSInit                  0x00001fcd   0xd2  Code  Gb  os_core.o [1]
OSInitHook              0x000028d3   0x14  Code  Gb  os_cpu_c.o [1]
OSIntEnter              0x0000209f   0x24  Code  Gb  os_core.o [1]
OSIntExit               0x000020c3   0xb2  Code  Gb  os_core.o [1]
OSIntNestingCtr         0x200032ed    0x1  Data  Gb  os_var.o [1]
OSMemCreate             0x00003ba1   0x8c  Code  Gb  os_mem.o [1]
OSMemDbgListPtr         0x2000328c    0x4  Data  Gb  os_var.o [1]
OSMemGet                0x00003c2d   0x4a  Code  Gb  os_mem.o [1]
OSMemPut                0x00003c77   0x4a  Code  Gb  os_mem.o [1]
OSMemQty                0x200032de    0x2  Data  Gb  os_var.o [1]
OSMsgPool               0x20003218    0x8  Data  Gb  os_var.o [1]
OSMutexCreate           0x00003e45   0x78  Code  Gb  os_mutex.o [1]
OSMutexDbgListPtr       0x20003290    0x4  Data  Gb  os_var.o [1]
OSMutexQty              0x200032e0    0x2  Data  Gb  os_var.o [1]
OSPcpMutexPend          0x00003ebd   0xf4  Code  Gb  os_mutex.o [1]
OSPcpMutexPost          0x00003fb1   0x9c  Code  Gb  os_mutex.o [1]
OSPrioCur               0x200032ef    0x1  Data  Gb  os_var.o [1]
OSPrioHighRdy           0x200032f0    0x1  Data  Gb  os_var.o [1]
OSPrioTbl               0x20003270    0x4  Data  Gb  os_prio.o [1]
OSQCreate               0x000040bd   0x64  Code  Gb  os_q.o [1]
OSQDbgListPtr           0x20003294    0x4  Data  Gb  os_var.o [1]
OSQPend                 0x00004121  0x18c  Code  Gb  os_q.o [1]
OSQQty                  0x200032e2    0x2  Data  Gb  os_var.o [1]
OSRdyList               0x20002a08   0xf0  Data  Gb  os_var.o [1]
OSRecTaskCreate         0x00002f73  0x144  Code  Gb  os_task.o [1]
OSRecTaskDel            0x00003185   0x5c  Code  Gb  os_task.o [1]
OSRunning               0x200032ee    0x1  Data  Gb  os_var.o [1]
OSSched                 0x00002175   0x78  Code  Gb  os_core.o [1]
OSSchedLock             0x000021ed   0x68  Code  Gb  os_core.o [1]
OSSchedLockNestingCtr   0x200032f1    0x1  Data  Gb  os_var.o [1]
OSSchedLockTimeBegin    0x20003298    0x4  Data  Gb  os_var.o [1]
OSSchedLockTimeMax      0x2000329c    0x4  Data  Gb  os_var.o [1]
OSSchedLockTimeMaxCur   0x200032a0    0x4  Data  Gb  os_var.o [1]
OSSchedUnlock           0x00002255   0x88  Code  Gb  os_core.o [1]
OSStart                 0x000022dd   0x64  Code  Gb  os_core.o [1]
OSStartHighRdy          0x00004a7d         Code  Gb  os_cpu_a.o [1]
OSTCBCurPtr             0x200032c8    0x4  Data  Gb  os_var.o [1]
OSTCBHighRdyPtr         0x200032cc    0x4  Data  Gb  os_var.o [1]
OSTaskCreate            0x00002ab9  0x10e  Code  Gb  os_task.o [1]
OSTaskCreateHook        0x000028e7    0x2  Code  Gb  os_cpu_c.o [1]
OSTaskCtxSwCtr          0x200032a4    0x4  Data  Gb  os_var.o [1]
OSTaskDbgListPtr        0x200032a8    0x4  Data  Gb  os_var.o [1]
OSTaskDelHook           0x000028e9    0x2  Code  Gb  os_cpu_c.o [1]
OSTaskDel_              0x000031e9   0xfa  Code  Gb  os_task.o [1]
OSTaskQty               0x200032e4    0x2  Data  Gb  os_var.o [1]
OSTaskReturnHook        0x000028eb    0x2  Code  Gb  os_cpu_c.o [1]
OSTaskSemPend           0x00002bc7  0x146  Code  Gb  os_task.o [1]
OSTaskSemPost           0x00002d0d   0x1c  Code  Gb  os_task.o [1]
OSTaskStkInit           0x000028ed   0x80  Code  Gb  os_cpu_c.o [1]
OSTaskSwHook            0x0000296d   0x3e  Code  Gb  os_cpu_c.o [1]
OSTickCtr               0x200032ac    0x4  Data  Gb  os_var.o [1]
OSTickTaskTCB           0x20002d68   0x9c  Data  Gb  os_var.o [1]
OSTickTaskTimeMax       0x200032b0    0x4  Data  Gb  os_var.o [1]
OSTimeDly               0x00004b4d   0xa6  Code  Gb  os_time.o [1]
OSTimeSet               0x00004bf3   0x26  Code  Gb  os_time.o [1]
OSTimeTick              0x00004c19   0x36  Code  Gb  os_time.o [1]
OSTimeTickHook          0x000029ab    0x2  Code  Gb  os_cpu_c.o [1]
OSTmrDbgListPtr         0x200032b4    0x4  Data  Gb  os_var.o [1]
OSTmrTaskTCB            0x20002e04   0x9c  Data  Gb  os_var.o [1]
OSTmrTaskTimeMax        0x200032b8    0x4  Data  Gb  os_var.o [1]
OSTmrTickCtr            0x200032bc    0x4  Data  Gb  os_var.o [1]
OSTmrUpdateCnt          0x200032c0    0x4  Data  Gb  os_var.o [1]
OSTmrUpdateCtr          0x200032c4    0x4  Data  Gb  os_var.o [1]
OS_CPU_ExceptStkBase    0x20003254    0x4  Data  Gb  os_cpu_c.o [1]
OS_CPU_PendSVHandler    0x00004a99         Code  Gb  os_cpu_a.o [1]
OS_CPU_SysTickHandler   0x000029ad   0x2c  Code  Gb  os_cpu_c.o [1]
OS_CPU_SysTickInit      0x000029d9   0x2c  Code  Gb  os_cpu_c.o [1]
OS_Dbg_Init             0x000045e9  0x1e8  Code  Gb  os_dbg.o [1]
OS_IdleTask             0x00002341   0x2c  Code  Gb  os_core.o [1]
OS_IdleTaskInit         0x0000236d   0x50  Code  Gb  os_core.o [1]
OS_MemDbgListAdd        0x00003cc1   0x24  Code  Gb  os_mem.o [1]
OS_MemInit              0x00003ce5   0x12  Code  Gb  os_mem.o [1]
OS_MsgPoolCreate        0x00003d09   0x3c  Code  Gb  os_msg.o [1]
OS_MsgPoolInit          0x00003d45   0x2c  Code  Gb  os_msg.o [1]
OS_MsgQFreeAll          0x00003d71   0x44  Code  Gb  os_msg.o [1]
OS_MsgQGet              0x00003dc9   0x70  Code  Gb  os_msg.o [1]
OS_MsgQInit             0x00003db5   0x14  Code  Gb  os_msg.o [1]
OS_MutexDbgListAdd      0x0000404d   0x28  Code  Gb  os_mutex.o [1]
OS_MutexInit            0x00004075   0x12  Code  Gb  os_mutex.o [1]
OS_Pend                 0x000023bd   0x6e  Code  Gb  os_core.o [1]
OS_PendDataInit         0x0000242b   0x36  Code  Gb  os_core.o [1]
OS_PendDbgNameAdd       0x00002461   0x42  Code  Gb  os_core.o [1]
OS_PendDbgNameRemove    0x000024a3   0x1e  Code  Gb  os_core.o [1]
OS_PendListInit         0x000024c1    0xe  Code  Gb  os_core.o [1]
OS_PendListInsertPrio   0x000024cf   0x6e  Code  Gb  os_core.o [1]
OS_PendListRemove       0x0000253d   0x2c  Code  Gb  os_core.o [1]
OS_PendListRemove1      0x00002569   0x48  Code  Gb  os_core.o [1]
OS_Post                 0x000025b1   0xc0  Code  Gb  os_core.o [1]
OS_Post1                0x00002671   0x28  Code  Gb  os_core.o [1]
OS_PrioGetHighest       0x00002a45   0x20  Code  Gb  os_prio.o [1]
OS_PrioInit             0x00002a31   0x14  Code  Gb  os_prio.o [1]
OS_PrioInsert           0x00002a65   0x26  Code  Gb  os_prio.o [1]
OS_PrioRemove           0x00002a8b   0x28  Code  Gb  os_prio.o [1]
OS_QDbgListAdd          0x000042ad   0x28  Code  Gb  os_q.o [1]
OS_QInit                0x000042d5   0x12  Code  Gb  os_q.o [1]
OS_RdyListInit          0x00002699   0x24  Code  Gb  os_core.o [1]
OS_RdyListInsert        0x000026c1   0x44  Code  Gb  os_core.o [1]
OS_RdyListInsertHead    0x00002705   0x3a  Code  Gb  os_core.o [1]
OS_RdyListInsertTail    0x0000273f   0x38  Code  Gb  os_core.o [1]
OS_RdyListRemove        0x00002777   0x5c  Code  Gb  os_core.o [1]
OS_RecTaskInitTCB       0x000030c1   0xbe  Code  Gb  os_task.o [1]
OS_SchedLockTimeMeasStart
                        0x000027d3   0x14  Code  Gb  os_core.o [1]
OS_SchedLockTimeMeasStop
                        0x000027e7   0x2e  Code  Gb  os_core.o [1]
OS_TaskBlock            0x0000287d   0x3a  Code  Gb  os_core.o [1]
OS_TaskDbgListAdd       0x00002d29   0x34  Code  Gb  os_task.o [1]
OS_TaskDbgListRemove    0x00002d5d   0x4c  Code  Gb  os_task.o [1]
OS_TaskInit             0x00002da9   0x1e  Code  Gb  os_task.o [1]
OS_TaskInitTCB          0x00002dc7   0xbc  Code  Gb  os_task.o [1]
OS_TaskRdy              0x000028b7   0x1a  Code  Gb  os_core.o [1]
OS_TaskReturn           0x00002e83   0x1a  Code  Gb  os_task.o [1]
OS_TaskSemPost          0x00002e9d   0xd6  Code  Gb  os_task.o [1]
OS_TickListInit         0x000036fd   0x2a  Code  Gb  os_tick.o [1]
OS_TickListInsert       0x00003727  0x12e  Code  Gb  os_tick.o [1]
OS_TickListRemove       0x00003855   0x42  Code  Gb  os_tick.o [1]
OS_TickListUpdate       0x00003897  0x2b8  Code  Gb  os_tick.o [1]
OS_TickTask             0x00003661   0x28  Code  Gb  os_tick.o [1]
OS_TickTaskInit         0x00003689   0x74  Code  Gb  os_tick.o [1]
OS_TmrInit              0x00004305   0xda  Code  Gb  os_tmr.o [1]
OS_TmrLink              0x000043df   0xd0  Code  Gb  os_tmr.o [1]
OS_TmrTask              0x000044fd   0xaa  Code  Gb  os_tmr.o [1]
OS_TmrUnlink            0x000044af   0x4c  Code  Gb  os_tmr.o [1]
PWMGenConfigure         0x00006571   0x28  Code  Gb  pwm.o [1]
PWMGenEnable            0x000065ad    0xa  Code  Gb  pwm.o [1]
PWMGenPeriodSet         0x00006599   0x14  Code  Gb  pwm.o [1]
PWMOutputInvert         0x000065f3   0x16  Code  Gb  pwm.o [1]
PWMOutputState          0x000065dd   0x16  Code  Gb  pwm.o [1]
PWMPulseWidthSet        0x000065b7   0x26  Code  Gb  pwm.o [1]
RL                      0x000050c7   0x18  Code  Gb  avl.o [1]
RR                      0x0000509f    0x8  Code  Gb  avl.o [1]
RR_Rotate               0x00004c71    0xc  Code  Gb  splay.o [1]
RR_Rotate_heap          0x00003321    0xc  Code  Gb  os_tick.o [1]
ReadyListInsert         0x00003551   0xb2  Code  Gb  os_tick.o [1]
Region$$Table$$Base     0x000075fc          --   Gb  - Linker created -
Region$$Table$$Limit    0x00007628          --   Gb  - Linker created -
Right_tgt               0x200032e9    0x1  Data  Gb  app.o [1]
RoboTurn                0x00006adf   0xc6  Code  Gb  app.o [1]
Search                  0x00004e9d    0x8  Code  Gb  splay.o [1]
Splay                   0x00004c89   0x88  Code  Gb  splay.o [1]
SplayPartition          0x20003168   0x20  Data  Gb  app.o [1]
SplayPartitionStorage   0x20000830  0x4b0  Data  Gb  app.o [1]
SysCtlClockGet          0x00005597  0x200  Code  Gb  sysctl.o [1]
SysCtlClockSet          0x00005435  0x162  Code  Gb  sysctl.o [1]
SysCtlDelay             0x0000542d    0x8  Code  Gb  sysctl.o [1]
SysCtlPWMClockSet       0x00005797   0x10  Code  Gb  sysctl.o [1]
SysCtlPeripheralDeepSleepDisable
                        0x00005407   0x26  Code  Gb  sysctl.o [1]
SysCtlPeripheralEnable  0x000053e1   0x26  Code  Gb  sysctl.o [1]
SysCtlPeripheralReset   0x00005381   0x60  Code  Gb  sysctl.o [1]
Tree                    0x20003280    0x4  Data  Gb  os_tick.o [1]
Tree234StoragePtr       0x200031c8   0x20  Data  Gb  app.o [1]
Tree234_mem_alloc       0x200017d0  0x320  Data  Gb  app.o [1]
_Close_all              0x000073a1   0x58  Code  Gb  xcloseall.o [3]
_EncodingSb_Mbtowc      0x00001e7f   0x30  Code  Gb  xencoding_sb.o [3]
_EncodingSb_Wctomb      0x00001e65   0x1a  Code  Gb  xencoding_sb.o [3]
_Files                  0x200001bc   0x20  Data  Gb  xfiles.o [3]
_Fofree                 0x0000721d   0x78  Code  Gb  xfofind.o [3]
_Fspos                  0x00006d81   0xd6  Code  Gb  xfspos.o [3]
_Fwprep                 0x00007145   0xb6  Code  Gb  xfwprep.o [3]
_GenldFull              0x00000ff9  0x24a  Code  Lc  xprintffull.o [3]
_IsdstStr               0x2000008c    0x4  Data  Gb  setlocale.o [3]
_LdtobFull              0x00000c71  0x382  Code  Lc  xprintffull.o [3]
_LitobFull              0x00000b13  0x10c  Code  Lc  xprintffull.o [3]
_LocaleEncoding         0x00001e51    0xe  Code  Gb  setlocale.o [3]
_LocaleReturnString     0x200000ac   0x50  Data  Lc  setlocale.o [3]
_Locale_Profile         0x20000090   0x1c  Data  Gb  setlocale.o [3]
_Locale_aeabi_lconv     0x20000050   0x38  Data  Gb  localeconv.o [3]
_Locale_lconv           0x20000000   0x50  Data  Gb  localeconv.o [3]
_Mbtowc                 0x0000128b   0x20  Code  Gb  xmbtowc.o [3]
_Nnl                    0x00006f09    0xc  Code  Gb  xfgpos.o [3]
_PrintfFull             0x0000011d  0x67c  Code  Gb  xprintffull.o [3]
_Prout                  0x000076cd   0x16  Code  Gb  xprout.o [3]
_PutcharsFull           0x00001243   0x2e  Code  Lc  xprintffull.o [3]
_PutstrFull             0x000007b1  0x35c  Code  Lc  xprintffull.o [3]
_TzoneStr               0x20000088    0x4  Data  Gb  setlocale.o [3]
_Wctomb                 0x00001431   0x1a  Code  Gb  xwctomb.o [3]
__aeabi_cdcmple         0x00001819         Code  Gb  DblCmpLe.o [4]
__aeabi_cdrcmple        0x00001849         Code  Gb  DblCmpGe.o [4]
__aeabi_d2iz            0x00001985         Code  Gb  DblToI32.o [4]
__aeabi_d2uiz           0x000019b1         Code  Gb  DblToI32.o [4]
__aeabi_ddiv            0x00001b8d         Code  Gb  DblDiv.o [4]
__aeabi_dmul            0x00001635         Code  Gb  DblMul.o [4]
__aeabi_dsub            0x00001a0d         Code  Gb  DblSub.o [4]
__aeabi_errno_addr      0x00006f61    0x6  Code  Gb  errno.o [3]
__aeabi_i2d             0x000019dd         Code  Gb  I32ToDbl.o [4]
__aeabi_ldiv0           0x00001ef1         Code  Gb  I64DivZer.o [5]
__aeabi_ui2d            0x000019f1         Code  Gb  I32ToDbl.o [4]
__aeabi_uldivmod        0x00001545         Code  Gb  I64DivMod.o [5]
__cexit_closeall        0x0000768f         Code  Gb  cexit.o [5]
__close                 0x00007313   0x1a  Code  Gb  close.o [6]
__cmain                 0x00007669         Code  Gb  cmain.o [5]
__cstart_closeall       0x0000788c         Data  Gb  cstart_closeall.o [5]
__data_Aldata           0x20003220    0x8  Data  Gb  xxmemxmalloc.o [3]
__data_GetMemChunk      0x00001ec5   0x2c  Code  Gb  xgetmemchunk.o [3]
__dwrite                0x00006f81   0x1e  Code  Gb  dwrite.o [6]
__exit                  0x00007131   0x14  Code  Gb  exit.o [6]
__iar_Dnorm             0x000017d7   0x42  Code  Gb  xdnorm.o [4]
__iar_Dscale            0x00001879  0x10c  Code  Gb  xdscale.o [4]
__iar_Errno             0x200001ec    0x4  Data  Gb  errno.o [3]
__iar_Locale_lconv_init
                        0x00001dd5   0x3a  Code  Gb  localeconv.o [3]
__iar_Lockfilelock      0x00006f6d    0x2  Code  Gb  xsyslock_nop.o [3]
__iar_Mbcurmax          0x00001375    0xa  Code  Gb  xmbcurmax.o [3]
__iar_Memchr            0x0000131d         Code  Gb  memchr.o [5]
__iar_Stderr            0x2000017c   0x40  Data  Gb  xfiles.o [3]
__iar_Stdin             0x200000fc   0x40  Data  Gb  xfiles.o [3]
__iar_Stdout            0x2000013c   0x40  Data  Gb  xfiles.o [3]
__iar_Strchr            0x000012cd         Code  Gb  strchr.o [5]
__iar_Unlockfilelock    0x00006f6f    0x2  Code  Gb  xsyslock_nop.o [3]
__iar_close_ttio        0x00006fe1   0x2e  Code  Gb  iarttio.o [6]
__iar_d2uiz             0x000019bd         Code  Gb  DblToI32.o [4]
__iar_dadd              0x00001ef5         Code  Gb  DblAdd.o [4]
__iar_data_init3        0x000075d5   0x28  Code  Gb  data_init.o [5]
__iar_dlib_perthread_access
                        0x00001fc9    0x2  Code  Gb  xtls.o [3]
__iar_dsub              0x00001a21         Code  Gb  DblSub.o [4]
__iar_dsubStart         0x00001a33         Code  Gb  DblSub.o [4]
__iar_get_ttio          0x00007011   0x38  Code  Gb  iarttio.o [6]
__iar_lookup_ttioh      0x0000704d    0x8  Code  Gb  XShttio.o [3]
__iar_packbits_init3    0x00007077   0xb2  Code  Gb  packbits_init.o [5]
__iar_program_start     0x000077d5         Code  Gb  cstartup_M.o [5]
__iar_sh_Discard        0x00006ca1   0x48  Code  Gb  XShHandles.o [3]
__iar_sh_Move           0x00006ce9   0x4c  Code  Gb  XShHandles.o [3]
__iar_sh_Pos            0x00006d35   0x44  Code  Gb  XShHandles.o [3]
__iar_sh_stdout         0x00006f9f   0x20  Code  Gb  iarwstd.o [6]
__iar_sh_write          0x00006fbf   0x22  Code  Gb  iarwrite.o [6]
__iar_ttio_handles      0x200001dc    0x8  Data  Lc  XShttio.o [3]
__iar_ui2d              0x000019f5         Code  Gb  I32ToDbl.o [4]
__iar_unaligned___aeabi_memcpy
                        0x0000144d         Code  Gb  ABImemcpy_unaligned.o [5]
__iar_unaligned___aeabi_memcpy4
                        0x0000146d         Code  Gb  ABImemcpy_unaligned.o [5]
__iar_unaligned___aeabi_memcpy8
                        0x0000146d         Code  Gb  ABImemcpy_unaligned.o [5]
__iar_zero_init3        0x000012ab   0x22  Code  Gb  zero_init3.o [5]
__low_level_init        0x00007683    0x4  Code  Gb  low_level_init.o [3]
__lseek                 0x00006f15   0x4c  Code  Gb  lseek.o [6]
__vector_table          0x00000000  0x11c  Data  Gb  app_vect.o [1]
__write                 0x00006f71   0x10  Code  Gb  write.o [6]
_call_main              0x00007675         Code  Gb  cmain.o [5]
_exit                   0x0000768d         Code  Gb  cexit.o [5]
_main                   0x0000767f         Code  Gb  cmain.o [5]
abort                   0x00007129    0x6  Code  Gb  abort.o [3]
avlPartition            0x20003188   0x20  Data  Gb  app.o [1]
avl_mem_alloc           0x200014b0  0x320  Data  Gb  app.o [1]
avlroot                 0x2000325c    0x4  Data  Gb  os_mutex.o [1]
delete                  0x00004f59   0xd4  Code  Gb  avl.o [1]
deletetree              0x00005221   0x4c  Code  Gb  splaytree.o [1]
div                     0x00001e41    0xe  Code  Gb  div.o [3]
ebuf                    0x20002ff0   0x50  Data  Lc  xfiles.o [3]
err                     0x200032e6    0x2  Data  Gb  splay.o [1]
exit                    0x00007687    0x4  Code  Gb  exit.o [3]
fclose                  0x00007299   0x7a  Code  Gb  fclose.o [3]
fflush                  0x00006ecf   0x34  Code  Gb  fflush.o [3]
fflushOne               0x00006e59   0x76  Code  Lc  fflush.o [3]
find_min                0x00003649   0x18  Code  Gb  os_tick.o [1]
fputc                   0x000073f9   0x56  Code  Gb  fputc.o [3]
free                    0x000014c5   0x7a  Code  Gb  xxmemxfree.o [3]
fseek                   0x000071fb   0x22  Code  Gb  fseek.o [3]
g_pucRITInit            0x00007450   0x50  Data  Lc  bsp_display.o [1]
g_pucRow1               0x000077e0    0x8  Data  Lc  bsp_display.o [1]
g_pucRow2               0x000077e8    0x8  Data  Lc  bsp_display.o [1]
g_pulDCGCRegs           0x000077bc    0xc  Data  Lc  sysctl.o [1]
g_pulGPIOBaseAddrs      0x000074a0   0x48  Data  Lc  gpio.o [1]
g_pulRCGCRegs           0x000077b0    0xc  Data  Lc  sysctl.o [1]
g_pulSRCRRegs           0x000077a4    0xc  Data  Lc  sysctl.o [1]
g_pulXtals              0x00007344   0x5c  Data  Lc  sysctl.o [1]
g_ulDelay               0x20003238    0x4  Data  Lc  bsp_display.o [1]
heap_err                0x200032dc    0x2  Data  Gb  os_tick.o [1]
height                  0x0000502d   0x32  Code  Gb  avl.o [1]
iMove                   0x200001e4    0x4  Data  Gb  app.o [1]
insert                  0x00004ea5   0xb4  Code  Gb  avl.o [1]
inserttree              0x000051b1   0x70  Code  Gb  splaytree.o [1]
localeconv              0x00001e0f   0x16  Code  Gb  localeconv.o [3]
main                    0x00006609   0xde  Code  Gb  app.o [1]
malloc                  0x00001381   0xac  Code  Gb  xxmemxmalloc.o [3]
measurement             0x20003230    0x4  Data  Gb  app.o [1]
memchr                  0x0000131d         Code  Gb  memchr.o [5]
minValue                0x00005115   0x10  Code  Gb  avl.o [1]
obuf                    0x20003040   0x50  Data  Lc  xfiles.o [3]
printf                  0x00004b01   0x24  Code  Gb  printf.o [3]
putchar                 0x000076e5    0xc  Code  Gb  putchar.o [3]
rdylist_delete          0x00003603   0x46  Code  Gb  os_tick.o [1]
rdylistptr              0x2000327c    0x4  Data  Gb  os_tick.o [1]
remove                  0x0000732d   0x16  Code  Gb  remove.o [6]
root                    0x200032d0    0x4  Data  Gb  splay.o [1]
rotateleft              0x0000507f   0x20  Code  Gb  avl.o [1]
rotateright             0x0000505f   0x20  Code  Gb  avl.o [1]
sFileInfo               0x20002ea0   0x80  Data  Lc  XShHandles.o [3]
scale                   0x00000c25   0x46  Code  Lc  xprintffull.o [3]
splaytree               0x00005125   0x8c  Code  Gb  splaytree.o [1]
start                   0x20003228    0x4  Data  Gb  app.o [1]
start_block             0x20003264    0x4  Data  Gb  os_mutex.o [1]
stop                    0x2000322c    0x4  Data  Gb  app.o [1]
stop_block              0x20003268    0x4  Data  Gb  os_mutex.o [1]
stp                     0x20003278    0x4  Data  Gb  os_task.o [1]
strchr                  0x000012cd         Code  Gb  strchr.o [5]
strlen                  0x000012e5         Code  Gb  strlen.o [5]
strt                    0x20003274    0x4  Data  Gb  os_task.o [1]
system_ceiling          0x200001e8    0x4  Data  Gb  os_mutex.o [1]
temp_tcb                0x20003284    0x4  Data  Gb  os_tick.o [1]
tl                      0x20003258    0x4  Data  Gb  os_mutex.o [1]
treeroot                0x20003260    0x4  Data  Gb  os_mutex.o [1]


[1] = C:\Users\Mani\Documents\NTU\sem-2\Embedded_OS\OS_bckup\phase2\RM\sched\ce4053\Micrium\Software\EvalBoards\TI\LM3S9B92-EVALBOT\IAR\uCOS-III-CE4053_PG\Flash\Obj
[2] = command line
[3] = dl7M_tlf.a
[4] = m7M_tl.a
[5] = rt7M_tl.a
[6] = shb_l.a

  29 508 bytes of readonly  code memory
   1 494 bytes of readonly  data memory
  14 066 bytes of readwrite data memory

Errors: none
Warnings: none
